:0400000019EF10F0F4
:10100000003738392F3435362A3132332D23303DED
:101010002B504C6561736520536574205061737368
:10102000776F726400496E436F727265637420500B
:10103000617373776F726400506C656173652045EE
:101040006E74657220506173730054727920616709
:1010500061696E002057656C636F6D00252E3166E7
:1010600000252E36660025690020002A0000000EAB
:10107000026E000E016EFF0E036E01EC11F0C4EC67
:1010800011F079EC11F02DEC0DF0000E026E000E57
:10109000016EAFEC11F0596E5928D8A452EF08F048
:1010A00054EF08F06FEF08F0EBEC0AF01EC056F0BA
:1010B0001FC057F0010E026E200E016E56C003F0E5
:1010C00001EC11F0010E026E210E016E57500F0B54
:1010D000036E01EC11F0010E596E89EF08F0FE0E5F
:1010E0005918D8A476EF08F078EF08F082EF08F0EE
:1010F00044EC11F003C056F004C057F0000E596ED6
:1011000089EF08F044EC11F003C056F004C057F02A
:10111000592A000E026E000E016E59C003F001EC58
:1011200011F056C01EF057C01FF012EC09F0586EB7
:101130005804D8A49EEF08F0A0EF08F0D0EF08F014
:10114000460E0F6E010E106EA9EC10F05A6E460E90
:10115000196E010E1A6E010E1B6E270E1C6ED8EC56
:1011600010F05A6E5B0E096E44EC0FF05A6E4C0E86
:10117000096EC8EC0CF05A6E330E316EBB0E306E39
:10118000E00EE82EFED7302EFCD7312EFAD74C0ECB
:10119000096E63EC0CF05A6E020E586E98EF08F070
:1011A0005850D8A4D6EF08F0D8EF08F00EEF09F0A9
:1011B000460E0F6E010E106EA9EC10F05A6E460E20
:1011C000196E010E1A6E060E1B6E250E1C6ED8ECE3
:1011D00010F05A6E460E196E020E1A6E060E1B6E37
:1011E0004A0E1C6ED8EC10F05A6E5B0E096E7BEC4A
:1011F0000FF05A6E4C0E096E63EC0CF05A6E150E21
:10120000316E4B0E306EBE0EE82EFED7302EFCD760
:10121000312EFAD700F000F091EF08F098EF08F0C7
:1012200000EF00F0000E2B6E000E2C6E000E2D6EE7
:10123000000E2E6E000E2F6E460E0F6E010E106EFB
:10124000A9EC10F05A6E460E0F6E020E106EA9EC4D
:1012500010F05A6E460E126E380E136E1350D8A44C
:10126000100E146E53EC0EF05A6E460E196E020EEE
:101270001A6E070E1B6E690E1C6ED8EC10F05A6EBB
:10128000460E0F6E0E0E106EA9EC10F05A6E74EF33
:1012900009F06A0E096E2F502B0F0A6EEEEC0BF060
:1012A0005A6E2F502B0FD96EDA6ADF50D8B45BEF2D
:1012B00009F05DEF09F074EF09F0460E126E2F5041
:1012C0002B0F206E20C013F0146A53EC0EF05A6EF0
:1012D0002F2A030E216E8A0E206E560EE82EFED7A0
:1012E000202EFCD7212EFAD7030E2F647AEF09F0B7
:1012F0007CEF09F049EF09F02BC001F0026A030E00
:10130000046EE80E036E8EEC11F02D500A0DF3CF33
:1013100020F0F4CF21F02C50640DF3CF22F0F4CF65
:1013200023F020502224246E21502320256E0150CA
:101330002424266E02502520276E2E502626000ECD
:101340002722B00E2624286E2F0E2720296E285023
:101350001E1807E129501F18D8A4B1EF09F0B3EF08
:1013600009F0B7EF09F0010E2A6EB9EF09F0000E8F
:101370002A6E2A501200010E076E0150D8B4C3EF36
:1013800009F0C5EF09F0E3EF09F00150D96EDA6A10
:10139000DF50070B026E080E0260D1EF09F0D3EFA9
:1013A00009F0E3EF09F00150D96EDA6ADF30E83274
:1013B000E832070B026E040E0264E1EF09F0E3EF7E
:1013C00009F03AEF0AF0000E076E5AEF0AF00150EA
:1013D000D96EDA6ADF50070B026E010E036E022A25
:1013E000F4EF09F0D8900336022EF2EF09F0035023
:1013F000FF0A046E0150D96EDA6ADF30E832E83253
:10140000070B020DF3503C0FD96EDA6ADECF05F000
:10141000DDCF06F005C0D9FF06C0DAFF0450DF16A5
:101420005AEF0AF00150D96EDA6ADF50070B026EEC
:10143000010E036E022A1FEF0AF0D8900336022E27
:101440001DEF0AF00150D96EDA6ADF30E832E83277
:10145000070B020DF3503C0FD96EDA6ADECF04F0B1
:10146000DDCF05F004C0D9FF05C0DAFF0350DF125D
:101470005AEF0AF00150D96EDA6ADFBE42EF0AF085
:1014800045EF0AF0010E46EF0AF0000E026E036A05
:101490000350000AD8B44FEF0AF0E3EF09F002500E
:1014A000000AD8B4E7EF09F0010AD8B412EF0AF045
:1014B000E3EF09F007501200010E086E0150D8B496
:1014C00064EF0AF066EF0AF084EF0AF00150D96E7B
:1014D000DA6ADF50070B036E080E036072EF0AF042
:1014E00074EF0AF084EF0AF00150D96EDA6ADF3047
:1014F000E832E832070B036E040E036482EF0AF051
:1015000084EF0AF088EF0AF0000E086EE9EF0AF0A7
:101510000204D8A48EEF0AF090EF0AF0B8EF0AF0B8
:101520000150D96EDA6ADF50070B036E010E046EAC
:10153000032A9DEF0AF0D8900436032E9BEF0AF0A1
:101540000150D96EDA6ADF30E832E832070B020D5B
:10155000F350320FD96EDA6ADECF05F0DDCF06F038
:1015600005C0D9FF06C0DAFF0450DF12E9EF0AF028
:101570000250D8A4BEEF0AF0C0EF0AF084EF0AF0E0
:101580000150D96EDA6ADF50070B036E010E046E4C
:10159000032ACDEF0AF0D8900436032ECBEF0AF0E1
:1015A0000450FF0A056E0150D96EDA6ADF30E83266
:1015B000E832070B020DF350320FD96EDA6ADECF34
:1015C00006F0DDCF07F006C0D9FF07C0DAFF0550EF
:1015D000DF1608501200000E2E6E000E2A6E000E4E
:1015E0002B6E000E2C6E000E2D6E460E126E110E1E
:1015F000136E1350D8A4100E146E53EC0EF05A6EE6
:10160000460E196E020E1A6E070E1B6E690E1C6EC8
:10161000D8EC10F05A6E460E0F6E0E0E106EA9EC3E
:1016200010F05A6E3FEF0BF06A0E096E2E502A0F23
:101630000A6EEEEC0BF05A6E2E502A0FD96EDA6A53
:10164000DF50D8B426EF0BF028EF0BF03FEF0BF094
:10165000460E126E6B0E136E1350D8A4100E146E3D
:1016600053EC0EF05A6E2E2A030E216E8A0E206E57
:10167000560EE82EFED7202EFCD7212EFAD7030EC9
:101680002E6445EF0BF047EF0BF014EF0BF02AC080
:1016900001F0026A030E046EE80E036E8EEC11F088
:1016A0002C500A0DF3CF20F0F4CF21F02B50640D15
:1016B000F3CF22F0F4CF23F020502224246E2150C7
:1016C0002320256E01502424266E02502520276EEB
:1016D0002D502626000E2722B00E2624286E2F0E0F
:1016E0002720296E28C01EF029C01FF01200000E0E
:1016F000146E1250D8A47FEF0BF081EF0BF085EF42
:101700000BF0000E156EECEF0BF01250040F096E8B
:1017100007EC0FF0156E1250050F096E07EC0FF075
:10172000156E000E146E12501424096E07EC0FF0A3
:10173000142A030E14649FEF0BF0A1EF0BF093EF4C
:101740000BF0270E136EF50EE82EFED7132EFCD7E6
:10175000000012C00FF0380E106EA9EC10F00D0E44
:10176000136EFC0EE82EFED7132EFCD712C00FF01E
:10177000380E106EA9EC10F0420EE82EFED700F0E5
:1017800000F012C00FF0380E106EA9EC10F012C06D
:101790000FF0010E106EA9EC10F012C00FF0020E47
:1017A000106EA9EC10F012C00FF0060E106EA9EC2E
:1017B00010F012C00FF00C0E106EA9EC10F012C059
:1017C0000FF0280E106EA9EC10F012C00FF0800E72
:1017D000106EA9EC10F0156E155012000950D8B417
:1017E000F4EF0BF0F6EF0BF0FEEF0BF00A50D8A47D
:1017F000FCEF0BF0FEEF0BF002EF0CF0000E0C6EA6
:1018000061EF0CF0000E0F6E000E0E6E000E0D6EEE
:10181000000E0F6E000E0E6E09500E24016E000EAB
:10182000026E5CEC0AF00E2A030E0E641AEF0CF046
:101830001CEF0CF00CEF0CF009500F24016E010EA0
:10184000026E5CEC0AF01A0E0B6EF80EE82EFED754
:101850000B2EFCD700F000F0000E106E0950102483
:10186000040F016E0D0E026EF3EC0DF00C6E0D0404
:10187000D8A43DEF0CF03FEF0CF04FEF0CF00F5001
:10188000040DF350010F10240B6E0BC0F6FF100E69
:10189000F76E0A50D96EDA6A0800F5CFDFFF102A1A
:1018A000030E106456EF0CF058EF0CF02EEF0CF016
:1018B0000F2A030E0F645FEF0CF061EF0CF00AEFDC
:1018C0000CF00C5012000950D8A469EF0CF06BEF2B
:1018D0000CF06FEF0CF0000E0B6EC6EF0CF0095021
:1018E000D96EDA6ADF38070B0A6E0C500A18F80B4B
:1018F0000A180C6E0950D96EDA6ADF500F0B0A6EA7
:101900000A460A460A460C500A18C70B0A180C6EFB
:101910000C9E0950D96EDA6ADFAE02D00C8C01D071
:101920000C9C0950D96EDA6A010ED926DF38070BF4
:101930000A6E0D500A18F80B0A180D6E0950D96E70
:10194000DA6A010ED926DF500F0B0A6E0A460A46E4
:101950000A460D500A18C70B0A180D6E0D9E095045
:10196000D96EDA6A010ED926DFAE02D00D8C01D015
:101970000D9C0C0E016E000E026E5CEC0AF00D0E5A
:10198000016E000E026E5CEC0AF00B6E0B50120042
:101990000950D8A4CEEF0CF0D0EF0CF0D4EF0CF03F
:1019A000000E0B6E2BEF0DF00950D96EDA6ADF389E
:1019B000070B0A6E0C500A18F80B0A180C6E095027
:1019C000D96EDA6ADF500F0B0A6E0A460A460A46DB
:1019D0000C500A18C70B0A180C6E0C9E0950D96ED1
:1019E000DA6ADFAE02D00C8C01D00C9C0950D96EA3
:1019F000DA6A010ED926DF38070B0A6E0D500A1875
:101A0000F80B0A180D6E0950D96EDA6A010ED92644
:101A1000DF500F0B0A6E0A460A460A460D500A1896
:101A2000C70B0A180D6E0D9E0950D96EDA6A010EA9
:101A3000D926DFAE02D00D8C01D00D9C0C0E016EAC
:101A4000010E026E5CEC0AF00D0E016E000E026ECD
:101A50005CEC0AF00B6E0B501200460E126E540E28
:101A6000136E1350D8A4100E146E53EC0EF05A6E71
:101A7000020E1A6E040E196EBA0EE82EFED7192E3B
:101A8000FCD71A2EFAD700F000F0000E1B6E460E9F
:101A90000F6E1C0E106EA9EC10F05A6E020E1A6E2C
:101AA000040E196EBA0EE82EFED7192EFCD71A2E88
:101AB000FAD700F000F01B2A0B0E1B6462EF0DF04A
:101AC00064EF0DF047EF0DF0000E1B6E460E0F6E2B
:101AD000180E106EA9EC10F05A6E020E1A6E040E5B
:101AE000196EBA0EE82EFED7192EFCD71A2EFAD789
:101AF00000F000F01B2A0B0E1B6481EF0DF083EF4A
:101B00000DF066EF0DF0460E0F6E010E106EA9EC93
:101B100010F05A6E460E0F6E020E106EA9EC10F009
:101B20005A6E12000C50D8A498EF0DF09AEF0DF0F9
:101B30009EEF0DF0000E0E6EF1EF0DF00C50D96E11
:101B4000DA6ADF38070B0D6E0F500D18F80B0D1801
:101B50000F6E0C50D96EDA6ADF500F0B0D6E0D460A
:101B60000D460D460F500D18C70B0D180F6E0F9E2A
:101B70000C50D96EDA6ADFAE02D00F8C01D00F9C08
:101B80000F0E096E07EC0FF00C50D96EDA6A010ED9
:101B9000D926DF38070B0D6E10500D18F80B0D18F5
:101BA000106E0C50D96EDA6A010ED926DF500F0B79
:101BB0000D6E0D460D460D4610500D18C70B0D1835
:101BC000106E109E0C50D96EDA6A010ED926DFAE67
:101BD00002D0108C01D0109C100E096E07EC0FF093
:101BE0000E6E0E501200010E076E0150D8B4FBEFBE
:101BF0000DF0FDEF0DF023EF0EF00250D8B403EF1F
:101C00000EF005EF0EF023EF0EF00150D96EDA6AF8
:101C1000DF50070B036E080E036011EF0EF013EF99
:101C20000EF023EF0EF00150D96EDA6ADF30E832A1
:101C3000E832070B036E040E036421EF0EF023EF6E
:101C40000EF027EF0EF0000E076E51EF0EF002506F
:101C5000D96EDA6A0150E16EE26AE750070B036E53
:101C60000150E16EE26AE730E832E832070B020D1C
:101C7000F350600FE16EE26AE6CF04F0E5CF05F0C5
:101C800004C0E1FF05C0E2FFE750066E032A4BEFF8
:101C90000EF0D8900632032E49EF0EF00650010BDD
:101CA000DF6E07501200010E176E1250D8B45BEFB2
:101CB0000EF05DEF0EF066EF0EF013501410D8A486
:101CC00064EF0EF066EF0EF06AEF0EF0000E176E86
:101CD000ADEF0EF0000E186E000E186E8EEF0EF0C7
:101CE00012C00FF018501324156E000E1420166E3B
:101CF00015C0F6FF16C0F7FF000EF86E0F0EF76462
:101D000003D00800F55005D0F6CFE9FFF7CFEAFF82
:101D1000EF50106E7AEC10F01716182A1850132492
:101D2000156E000E1420166E15C0F6FF16C0F7FFD4
:101D3000000EF86E0F0EF76403D00800F55005D0C2
:101D4000F6CFE9FFF7CFEAFFEF500009D8A4ABEFD9
:101D50000EF0ADEF0EF070EF0EF017501200010E06
:101D6000176E1250D8A4B7EF0EF0B9EF0EF0BDEF1A
:101D70000EF0000E176E05EF0FF01406E8EF0EF0F0
:101D800012C00FF01450800F106EA9EC10F0176EF7
:101D900005EF0FF012C00FF01450C00F106EA9EC39
:101DA00010F0176E05EF0FF012C00FF01450940FE3
:101DB000106EA9EC10F0176E05EF0FF012C00FF0C7
:101DC0001450D40F106EA9EC10F0176E05EF0FF041
:101DD0001350156E166A1650000AD8B4F2EF0EF0C2
:101DE00005EF0FF01550010AD8B4C0EF0EF0030A4A
:101DF000D8B4CAEF0EF0010AD8B4D4EF0EF0070A37
:101E0000D8B4DEEF0EF005EF0FF0175012000950B6
:101E1000D8B40DEF0FF00FEF0FF02DEF0FF00950CA
:101E2000D96EDA6ADF50070B0A6E080E0A601BEFE4
:101E30000FF01DEF0FF02DEF0FF00950D96EDA6A99
:101E4000DF30E832E832070B0A6E040E0A642BEF2B
:101E50000FF02DEF0FF031EF0FF0000E0B6E42EF91
:101E60000FF009C001F0BBEC09F00B6E09C001F0E6
:101E70000950D96EDA6A000EDFBC010E026E5CEC0E
:101E80000AF00B6E0B5012000950D8A44AEF0FF065
:101E90004CEF0FF050EF0FF0000E0B6E79EF0FF0DC
:101EA0000950D96EDA6ADF500F0B0A6E0A460A46ED
:101EB0000A460C500A18C70B0A180C6E0950D96E46
:101EC000DA6ADF38070B0A6E0C500A18F80B0A188A
:101ED0000C6E0950D96EDA6ADFAE02D00C8C01D0DC
:101EE0000C9C0C9E0C0E016E010E026E5CEC0AF056
:101EF0000B6E0B5012000950D8A481EF0FF083EF46
:101F00000FF087EF0FF0000E0B6EB0EF0FF00950DF
:101F1000D96EDA6ADF500F0B0A6E0A460A460A4685
:101F20000C500A18C70B0A180C6E0950D96EDA6AE1
:101F3000DF38070B0A6E0C500A18F80B0A180C6EE3
:101F40000950D96EDA6ADFAE02D00C8C01D00C9C3D
:101F50000C9E0C0E016E000E026E5CEC0AF00B6E15
:101F60000B5012000C50D8A4B8EF0FF0BAEF0FF0DE
:101F7000BEEF0FF0000E0E6EE5EF0FF00C50D96EB5
:101F8000DA6ADF500F0B0D6E0D460D460D460F50F1
:101F90000D18C70B0D180F6E0C50D96EDA6ADF38AA
:101FA000070B0D6E0F500D18F80B0D180F6E0C501F
:101FB000D96EDA6ADFAE02D00F8C01D00F9C0F9E73
:101FC0000F0E096E07EC0FF00E6E0E5012000C5043
:101FD000D8A4EDEF0FF0EFEF0FF0F3EF0FF0000EDE
:101FE0000D6E17EF10F0000E0E6E000E0E6E0C5000
:101FF0000E24096E07EC0FF00E2A030E0E6403EF99
:1020000010F005EF10F0F7EF0FF0000E0F6E0C5010
:102010000F24040F016EBBEC09F00D6E0F2A030EA6
:102020000F6415EF10F017EF10F007EF10F00D50E0
:102030001200760EF66E230EF76E000EF86E00EEAE
:1020400060F010EE12F00900F5CFEEFFE550E15020
:10205000FAE1420EF66E230EF76E000EF86E00EEF9
:1020600032F010EE1CF00900F5CFEEFFE550E15024
:10207000FAE100EE72F00C0EEE6AE806FDE100EE09
:102080004EF00E0EEE6AE806FDE1000EF86E00015D
:1020900037EF08F0010E0D6E0950D8A452EF10F082
:1020A00054EF10F058EF10F0000E0D6E78EF10F0B6
:1020B000000E0E6E09500E24016E0EC00BF00AC009
:1020C0000CF00B2A66EF10F0D8900C320B2E64EF58
:1020D00010F00C50010B026E5CEC0AF00D160E2A8B
:1020E000030E0E6476EF10F078EF10F05AEF10F058
:1020F0000D5012000F50D8A480EF10F082EF10F0B6
:1021000086EF10F0000E116EA7EF10F00F50040FC5
:10211000016E010E026E5CEC0AF0116E0FC009F048
:1021200010380F0B0A6E4AEC10F0116E0FC009F058
:1021300023EC11F0116E0FC009F010C00AF04AEC48
:1021400010F0116E0FC009F023EC11F0116E115058
:1021500012000F50D8A4AFEF10F0B1EF10F0B5EFB0
:1021600010F0000E116ED6EF10F00F50040F016E3C
:10217000000E026E5CEC0AF0116E0FC009F0103810
:102180000F0B0A6E4AEC10F0116E0FC009F023EC31
:1021900011F0116E0FC009F010C00AF04AEC10F0F7
:1021A000116E0FC009F023EC11F0116E11501200E6
:1021B0001950D8B4DEEF10F0E0EF10F0E8EF10F0B7
:1021C0001C50D8A4E6EF10F0E8EF10F0ECEF10F0A0
:1021D000000E1D6EFFEF10F019C012F01AC013F0C0
:1021E0001BC014F0AFEC0EF019C012F01CC013F0BD
:1021F0001350D8A4100E146E53EC0EF01D6E1D502B
:102200001200000EF2BE010E046E0250030BAA6E05
:1022100001C0A9FF03C0A8FFA69EA69CA684F29EAB
:10222000550EA76EAA0EA76EA682A6B21AEF11F0DF
:102230001CEF11F015EF11F0A69404B002D0F29E3D
:1022400001D0F28E12000950D8A429EF11F02BEF23
:1022500011F02FEF11F0000E0A6E42EF11F009504D
:10226000050F016E010E026E5CEC0AF0030EE82E03
:10227000FED700000950050F016E000E026E5CECE7
:102280000AF00A6E0A501200010E026E200E016E54
:10229000AFEC11F0056E0550086E096A010E026E72
:1022A000210E016EAFEC11F0056E0550076E066A47
:1022B000065008120750091208C003F009C004F0C4
:1022C0001200000E8D6E000E8C6E000E896E000ED8
:1022D0008A6E000E8B6E070E966E926893689468F5
:1022E000FE0E956E7E681F0E7F6E000E7C6EF18E68
:1022F0001200460E126E77EC0BF05A6E6A0E0C6EE0
:10230000E7EC0FF05A6E5B0E0C6EB2EC0FF05A6EEB
:102310004C0E0C6E92EC0DF05A6E1200015003023E
:10232000F3CF05F0F4CF06F001500402F350062677
:1023300002500302F350062605C001F006C002F069
:102340001200890F8A0F8B0F8C0F8D0F920F930F36
:10235000940F950F960F1A1B1C1D18191020025070
:10236000030BAA6E01C0A9FFA69CA69EA680000032
:102370000000A8501200800F810F820F830F840F7E
:102380001E1F2021908D8E8F61EC11F0C9EC11F091
:0C2390001200300ED36E000E9B6E120087
:020000040030CA
:0E000000FF021F1EFF8B85FF0FC00FE00F4099
:00000001FF
