:0400000057EF00F0C6
:100008005782FACF01F0FBCF02F0D9CF03F0DACF55
:1000180004F0F2AC12EF00F014EF00F04DEF00F036
:100028009DA819EF00F01BEF00F030EF00F09EA83C
:1000380020EF00F022EF00F030EF00F002D82EEFB2
:1000480000F00500FA6E5450FD6E5550FE6EFF6AC2
:10005800FA5012004DEF00F09DAA35EF00F037EF8F
:1000680000F04DEF00F09EAA3CEF00F03EEF00F0EC
:100078004DEF00F002D84BEF00F00500FA6E0001DA
:10008800A651FD6EA751FE6EFF6AFA5012004DEFA1
:1000980000F004C0DAFF03C0D9FF02C0FBFF01C0B3
:0A00A800FAFF5792110024EF11F047
:10100000003738392F3435362A3132332D23303DED
:101010002B00400100504C656173652053657420BE
:1010200050617373776F726400496E436F727265BB
:1010300063742050617373776F726400506C6561E4
:10104000736520456E74657220506173730054722D
:101050007920616761696E002057656C636F6D0070
:10106000252E316600252E36660025690020002ACF
:1010700000001DEC13F0C8EC12F0C8EC0DF0000EEF
:10108000066E000E056E11EC13F0406E000E066E3B
:10109000010E056E11EC13F03E6E4028D8A453EFFC
:1010A00008F055EF08F070EF08F023EC0BF021C0CA
:1010B00035F022C036F0010E066E200E056E35C0EA
:1010C00007F031EC12F0010E066E210E056E36505F
:1010D0000F0B076E31EC12F0010E406E8AEF08F034
:1010E000FE0E4018D8A477EF08F079EF08F083EFF0
:1010F00008F092EC12F007C035F008C036F0000E90
:10110000406E8AEF08F092EC12F007C035F008C08C
:1011100036F0402A000E066E000E056E40C007F045
:1011200031EC12F035C021F036C022F04DEC09F060
:101130003F6E3F04D8A49FEF08F0A1EF08F000EF46
:1011400009F04C0E136E010E146EB4EC11F0566ED5
:101150004C0E1C6E010E1D6E010E1E6E2B0E1F6EB0
:101160000CEC12F0566E28EC13F00009D8B4BBEF6B
:1011700008F0BDEF08F0C0EF08F0590EE3EC11F0F5
:10118000410E0D6E4FEC10F0566E520E0D6EFEECD1
:101190000CF0566E1A0E2C6E5E0E2B6E6E0EE82E36
:1011A000FED72B2EFCD72C2EFAD700F000F0520ED3
:1011B0000D6E63EC0DF0566E1A0E2C6E5E0E2B6EDD
:1011C0006E0EE82EFED72B2EFCD72C2EFAD700F071
:1011D00000F0520E0D6E99EC0CF0566E410E0D6E35
:1011E00086EC10F0566E3E2A000E066E010E056E5D
:1011F0003EC007F031EC12F0020E3F6E99EF08F09E
:101200003F50D8A406EF09F008EF09F03EEF09F0CF
:101210004C0E136E010E146EB4EC11F0566E4C0EA3
:101220001C6E010E1D6E060E1E6E290E1F6E0CEC3E
:1012300012F0566E4C0E1C6E020E1D6E060E1E6EC9
:101240004E0E1F6E0CEC12F0566E410E0D6E86ECBB
:1012500010F0566E520E0D6E99EC0CF0566E150E87
:101260002C6E4B0E2B6EBE0EE82EFED72B2EFCD70F
:101270002C2EFAD700F000F092EF08F0020E3F1883
:10128000D8A445EF09F047EF09F049EF09F092EFD4
:1012900008F099EF08F057EF00F0000E0001AA6F78
:1012A000000EAB6F000EAC6F000EAD6F000EAF6F97
:1012B0004C0E136E010E146EB4EC11F0566E4C0E03
:1012C000136E020E146EB4EC11F0566E4C0E166EC8
:1012D0003C0E176E97EC0FF0566E4C0E1C6E020E05
:1012E0001D6E070E1E6E6D0E1F6E0CEC12F0566E0C
:1012F0004C0E136E0E0E146EB4EC11F0566EAAEF77
:1013000009F0980E0D6EAF51AA0F0E6E23EC0CF083
:10131000566E0001AF51AA0FD96EDA6ADF50D8B409
:1013200094EF09F096EF09F0AAEF09F04C0E166E53
:101330006F0E176E97EC0FF0566E0001AF2B030E79
:10134000246E8A0E236E560EE82EFED7232EFCD76F
:10135000242EFAD7030E0001AF65B1EF09F0B3EF09
:1013600009F081EF09F0AAC005F0066A030E086EC5
:10137000E80E076EDDEC12F00001AC510A0DF3CF60
:1013800023F0F4CF24F0AB51640DF3CF25F0F4CF6C
:1013900026F023502524276E24502620286E055041
:1013A0002724296E065028202A6EAD512926000ECA
:1013B0002A22B00E2924A86F2F0E2A20A96FA85127
:1013C000211807E1A9512218D8A4E9EF09F0EBEFA1
:1013D00009F0EFEF09F0010EAE6FF1EF09F0000E2A
:1013E000AE6FAE511200010E0B6E0550D8B4FBEF7C
:1013F00009F0FDEF09F01BEF0AF00550D96EDA6A2B
:10140000DF50070B066E080E066009EF0AF00BEFBF
:101410000AF01BEF0AF00550D96EDA6ADF30E832C5
:10142000E832070B066E040E066419EF0AF01BEF94
:101430000AF072EF0AF0000E0B6E92EF0AF0055000
:10144000D96EDA6ADF50070B066E010E076E062AA8
:101450002CEF0AF0D8900736062E2AEF0AF0075034
:10146000FF0A086E0550D96EDA6ADF30E832E832DA
:10147000070B020DF350420FD96EDA6ADECF09F086
:10148000DDCF0AF009C0D9FF0AC0DAFF0850DF1625
:1014900092EF0AF00550D96EDA6ADF50070B066E3C
:1014A000010E076E062A57EF0AF0D8900736062E6F
:1014B00055EF0AF00550D96EDA6ADF30E832E832CB
:1014C000070B020DF350420FD96EDA6ADECF08F037
:1014D000DDCF09F008C0D9FF09C0DAFF0750DF12DD
:1014E00092EF0AF00550D96EDA6ADFBE7AEF0AF0A1
:1014F0007DEF0AF0010E7EEF0AF0000E066E076A1D
:101500000750000AD8B487EF0AF01BEF0AF0065024
:10151000000AD8B41FEF0AF0010AD8B44AEF0AF063
:101520001BEF0AF00B501200010E0C6E0550D8B4E0
:101530009CEF0AF09EEF0AF0BCEF0AF00550D96E5E
:10154000DA6ADF50070B076E080E0760AAEF0AF091
:10155000ACEF0AF0BCEF0AF00550D96EDA6ADF3062
:10156000E832E832070B076E040E0764BAEF0AF0A0
:10157000BCEF0AF0C0EF0AF0000E0C6E21EF0BF08A
:101580000604D8A4C6EF0AF0C8EF0AF0F0EF0AF09C
:101590000550D96EDA6ADF50070B076E010E086E30
:1015A000072AD5EF0AF0D8900836072ED3EF0AF0B5
:1015B0000550D96EDA6ADF30E832E832070B020DE7
:1015C000F350840FD96EDA6ADECF09F0DDCF0AF06E
:1015D00009C0D9FF0AC0DAFF0850DF1221EF0BF073
:1015E0000650D8A4F6EF0AF0F8EF0AF0BCEF0AF0C4
:1015F0000550D96EDA6ADF50070B076E010E086ED0
:10160000072A05EF0BF0D8900836072E03EF0BF0F2
:101610000850FF0A096E0550D96EDA6ADF30E832E9
:10162000E832070B020DF350840FD96EDA6ADECF71
:101630000AF0DDCF0BF00AC0D9FF0BC0DAFF09506A
:10164000DF160C501200000E0001AE6F000EAA6FE4
:10165000000EAB6F000EAC6F000EAD6F4C0E166E31
:10166000150E176E97EC0FF0566E4C0E1C6E020E98
:101670001D6E070E1E6E6D0E1F6E0CEC12F0566E78
:101680004C0E136E0E0E146EB4EC11F0566E72EF1B
:101690000BF0980E0D6EAE51AA0F0E6E23EC0CF0EF
:1016A000566E0001AE51AA0FD96EDA6ADF50D8B477
:1016B0005CEF0BF05EEF0BF072EF0BF04C0E166E62
:1016C0006F0E176E97EC0FF0566E0001AE2B030EE7
:1016D000246E8A0E236E560EE82EFED7232EFCD7DC
:1016E000242EFAD7030E0001AE6579EF0BF07BEFE5
:1016F0000BF049EF0BF0AAC005F0066A030E086E66
:10170000E80E076EDDEC12F00001AC510A0DF3CFCC
:1017100023F0F4CF24F0AB51640DF3CF25F0F4CFD8
:1017200026F023502524276E24502620286E0550AD
:101730002724296E065028202A6EAD512926000E36
:101740002A22B00E2924A86F2F0E2A20A96FA8C024
:1017500021F0A9C022F01200000E186E1650D8A475
:10176000B4EF0BF0B6EF0BF0BAEF0BF0000E196E02
:1017700021EF0CF01650040F0D6ED8EC0FF0196E1F
:101780001650050F0D6ED8EC0FF0196E000E186E86
:10179000165018240D6ED8EC0FF0182A030E18649A
:1017A000D4EF0BF0D6EF0BF0C8EF0BF0270E176E4F
:1017B000F50EE82EFED7172EFCD7000016C013F04A
:1017C000380E146EB4EC11F00D0E176EFC0EE82EF0
:1017D000FED7172EFCD716C013F0380E146EB4ECDB
:1017E00011F0420EE82EFED700F000F016C013F004
:1017F000380E146EB4EC11F016C013F0010E146E16
:10180000B4EC11F016C013F0020E146EB4EC11F02B
:1018100016C013F0060E146EB4EC11F016C013F0DF
:101820000C0E146EB4EC11F016C013F0280E146EEA
:10183000B4EC11F016C013F0800E146EB4EC11F07D
:10184000196E195012000D50D8B429EF0CF02BEF7F
:101850000CF033EF0CF00E50D8A431EF0CF033EF56
:101860000CF037EF0CF0000E106E97EF0CF0000E3E
:10187000136E000E126E000E116E000E136E000E2F
:10188000126E0D501224056E000E066E94EC0AF0D6
:10189000122A030E12644FEF0CF051EF0CF041EFDF
:1018A0000CF00D501324056E010E066E94EC0AF038
:1018B0001A0E0F6EF80EE82EFED70F2EFCD700F092
:1018C00000F0000E146E0D501424040F056E110E5E
:1018D000066E8AEC0EF0106E1104D8A472EF0CF0B4
:1018E00074EF0CF085EF0CF01350040DF350010F62
:1018F00014240F6E0FC0F6FF100EF76EF86A0E502C
:10190000D96EDA6A0800F5CFDFFF142A030E1464DB
:101910008CEF0CF08EEF0CF063EF0CF0132A030E3B
:10192000136495EF0CF097EF0CF03FEF0CF01050B4
:1019300012000D50D8A49FEF0CF0A1EF0CF0A5EF12
:101940000CF0000E0F6EFCEF0CF00D50D96EDA6A41
:10195000DF38070B0E6E10500E18F80B0E18106EB5
:101960000D50D96EDA6ADF500F0B0E6E0E460E4622
:101970000E4610500E18C70B0E18106E109E0D500C
:10198000D96EDA6ADFAE02D0108C01D0109C0D50F7
:10199000D96EDA6A010ED926DF38070B0E6E1150A8
:1019A0000E18F80B0E18116E0D50D96EDA6A010E72
:1019B000D926DF500F0B0E6E0E460E460E46115006
:1019C0000E18C70B0E18116E119E0D50D96EDA6AE3
:1019D000010ED926DFAE02D0118C01D0119C100E61
:1019E000056E000E066E94EC0AF0110E056E000EE8
:1019F000066E94EC0AF00F6E0F5012000D50D8A432
:101A000004EF0DF006EF0DF00AEF0DF0000E0F6E73
:101A100061EF0DF00D50D96EDA6ADF38070B0E6EEC
:101A200010500E18F80B0E18106E0D50D96EDA6AA1
:101A3000DF500F0B0E6E0E460E460E4610500E185F
:101A4000C70B0E18106E109E0D50D96EDA6ADFAEFD
:101A500002D0108C01D0109C0D50D96EDA6A010EA4
:101A6000D926DF38070B0E6E11500E18F80B0E1822
:101A7000116E0D50D96EDA6A010ED926DF500F0BA8
:101A80000E6E0E460E460E4611500E18C70B0E185F
:101A9000116E119E0D50D96EDA6A010ED926DFAE95
:101AA00002D0118C01D0119C100E056E010E066E35
:101AB00094EC0AF0110E056E000E066E94EC0AF01E
:101AC0000F6E0F5012000D50D8A469EF0DF06BEFA0
:101AD0000DF06FEF0DF0000E0F6EC6EF0DF00D5014
:101AE000D96EDA6ADF38070B0E6E10500E18F80B3D
:101AF0000E18106E0D50D96EDA6ADF500F0B0E6E95
:101B00000E460E460E4610500E18C70B0E18106EDD
:101B1000109E0D50D96EDA6ADFAE02D0108C01D063
:101B2000109C0D50D96EDA6A010ED926DF38070BEA
:101B30000E6E11500E18F80B0E18116E0D50D96E56
:101B4000DA6A010ED926DF500F0B0E6E0E460E46D6
:101B50000E4611500E18C70B0E18116E119E0D5027
:101B6000D96EDA6A010ED926DFAE02D0118C01D00F
:101B7000119C100E056E000E066E94EC0AF0110E0C
:101B8000056E010E066E94EC0AF00F6E0F501200F7
:101B90004C0E166E580E176E97EC0FF0566E020E26
:101BA0001C6E040E1B6EBA0EE82EFED71B2EFCD741
:101BB0001C2EFAD700F000F0000E1D6E4C0E136EB6
:101BC0001C0E146EB4EC11F0566E020E1C6E040E58
:101BD0001B6EBA0EE82EFED71B2EFCD71C2EFAD792
:101BE00000F000F01D2A0B0E1D64F9EF0DF0FBEF65
:101BF0000DF0DEEF0DF0000E1D6E4C0E136E180E84
:101C0000146EB4EC11F0566E020E1C6E040E1B6EB8
:101C1000BA0EE82EFED71B2EFCD71C2EFAD700F0EA
:101C200000F01D2A0B0E1D6418EF0EF01AEF0EF0D7
:101C3000FDEF0DF04C0E136E010E146EB4EC11F0AE
:101C4000566E4C0E136E020E146EB4EC11F0566EFE
:101C500012001050D8A42FEF0EF031EF0EF035EF38
:101C60000EF0000E126E88EF0EF01050D96EDA6A88
:101C7000DF38070B116E13501118F80B1118136E83
:101C80001050D96EDA6ADF500F0B116E11461146F3
:101C9000114613501118C70B1118136E139E1050D4
:101CA000D96EDA6ADFAE02D0138C01D0139C130E0A
:101CB0000D6ED8EC0FF01050D96EDA6A010ED926ED
:101CC000DF38070B116E14501118F80B1118146E31
:101CD0001050D96EDA6A010ED926DF500F0B116E43
:101CE00011461146114614501118C70B1118146EE5
:101CF000149E1050D96EDA6A010ED926DFAE02D0DA
:101D0000148C01D0149C140E0D6ED8EC0FF0126ED2
:101D100012501200010E0B6E0550D8B492EF0EF067
:101D200094EF0EF0BAEF0EF00650D8B49AEF0EF022
:101D30009CEF0EF0BAEF0EF00550D96EDA6ADF5064
:101D4000070B076E080E0760A8EF0EF0AAEF0EF063
:101D5000BAEF0EF00550D96EDA6ADF30E832E832B9
:101D6000070B076E040E0764B8EF0EF0BAEF0EF023
:101D7000BEEF0EF0000E0B6EE8EF0EF00650D96EBF
:101D8000DA6A0550E16EE26AE750070B076E05500C
:101D9000E16EE26AE730E832E832070B020DF350F9
:101DA0008E0FE16EE26AE6CF08F0E5CF09F008C0D9
:101DB000E1FF09C0E2FFE7500A6E072AE2EF0EF0EA
:101DC000D8900A32072EE0EF0EF00A50010BDF6EBA
:101DD0000B501200010E1B6E1650D8A4F2EF0EF03D
:101DE000F4EF0EF0F8EF0EF0000E1B6E40EF0FF068
:101DF000180623EF0FF016C013F01850800F146E62
:101E0000B4EC11F01B6E40EF0FF016C013F0185039
:101E1000C00F146EB4EC11F01B6E40EF0FF016C043
:101E200013F01850940F146EB4EC11F01B6E40EFC9
:101E30000FF016C013F01850D40F146EB4EC11F05C
:101E40001B6E40EF0FF01750196E1A6A1A50000AF5
:101E5000D8B42DEF0FF040EF0FF01950010AD8B4AD
:101E6000FBEF0EF0030AD8B405EF0FF0010AD8B467
:101E70000FEF0FF0070AD8B419EF0FF040EF0FF093
:101E80001B5012003A502D0FD96EDA6ADF6AABA4EC
:101E90004CEF0FF04EEF0FF060EF0FF03A502D0FB8
:101EA000D96EDA6ADF8202D860EF0FF00500FA6EB1
:101EB0000001A451FD6EA551FE6EFF6AFA5012009A
:101EC000ABA265EF0FF067EF0FF079EF0FF03A502C
:101ED0002D0FD96EDA6ADF8402D879EF0FF0050092
:101EE000FA6E0001A251FD6EA351FE6EFF6AFA5018
:101EF00012003A502D0FD96EDA6ADF50D8B483EF52
:101F00000FF085EF0FF094EF0FF002D892EF0FF083
:101F10000500FA6E0001A051FD6EA151FE6EFF6A30
:101F2000FA50120096EF0FF0F0EC12F01200010ED2
:101F3000196E1650D8B49FEF0FF0A1EF0FF0A9EF74
:101F40000FF01750D8A4A7EF0FF0A9EF0FF0ADEFE7
:101F50000FF0000E196ED6EF0FF0000E1A6E000E85
:101F60001A6EC4EF0FF016C013F017501A24186E33
:101F700018C0F6FF100EF76EF86A0800F5CF14F0DF
:101F800085EC11F019161A2A17501A24186E18C069
:101F9000F6FF100EF76EF86A0800F5500009D8A495
:101FA000D4EF0FF0D6EF0FF0B3EF0FF0195012008F
:101FB0000D50D8B4DEEF0FF0E0EF0FF0FEEF0FF0B2
:101FC0000D50D96EDA6ADF50070B0E6E080E0E60E8
:101FD000ECEF0FF0EEEF0FF0FEEF0FF00D50D96EBB
:101FE000DA6ADF30E832E832070B0E6E040E0E6458
:101FF000FCEF0FF0FEEF0FF002EF10F0000E0F6E8F
:1020000013EF10F00DC005F0F3EC09F00F6E0DC0EA
:1020100005F00D50D96EDA6A000EDFBC010E066EB7
:1020200094EC0AF00F6E0F5012009D9A840E056E0C
:102030001E0E066E4FEC13F09D98E80E056E240EF2
:10204000066E4AEC13F0080EB86E900EAB6E240EBE
:10205000AC6ECF0EAF6E000EB06ED60E056E260EB5
:10206000066E59EC13F0C60E056E260E066E54EC85
:1020700013F0CC0E056E260E066E5EEC13F0000E0D
:10208000376E000E3D6E000E3C6E080E3B6E000E6D
:102090003A6E000E396E000E386E9D8A12000D5099
:1020A000D8A455EF10F057EF10F05BEF10F0000ED2
:1020B0000F6E84EF10F00D50D96EDA6ADF500F0BFF
:1020C0000E6E0E460E460E4610500E18C70B0E181A
:1020D000106E0D50D96EDA6ADF38070B0E6E105095
:1020E0000E18F80B0E18106E0D50D96EDA6ADFAEAE
:1020F00002D0108C01D0109C109E100E056E010EA7
:10210000066E94EC0AF00F6E0F5012000D50D8A41A
:102110008CEF10F08EEF10F092EF10F0000E0F6EBB
:10212000BBEF10F00D50D96EDA6ADF500F0B0E6E58
:102130000E460E460E4610500E18C70B0E18106EA7
:102140000D50D96EDA6ADF38070B0E6E10500E187C
:10215000F80B0E18106E0D50D96EDA6ADFAE02D091
:10216000108C01D0109C109E100E056E000E066E95
:1021700094EC0AF00F6E0F5012001050D8A4C3EF69
:1021800010F0C5EF10F0C9EF10F0000E126EF0EF76
:1021900010F01050D96EDA6ADF500F0B116E114635
:1021A0001146114613501118C70B1118136E105019
:1021B000D96EDA6ADF38070B116E13501118F80B5D
:1021C0001118136E1050D96EDA6ADFAE02D0138C7C
:1021D00001D0139C139E130E0D6ED8EC0FF0126EEF
:1021E000125012001050D8A4F8EF10F0FAEF10F0CF
:1021F000FEEF10F0000E116E22EF11F0000E126EC5
:10220000000E126E105012240D6ED8EC0FF0122A30
:10221000030E12640EEF11F010EF11F002EF11F047
:10222000000E136E10501324040F056EF3EC09F02A
:10223000116E132A030E136420EF11F022EF11F038
:1022400012EF11F011501200060EF66E260EF76E08
:10225000000EF86E00EE84F010EE1CF00900F5CFD1
:10226000EEFFE550E150FAE1660EF66E260EF76ECF
:10227000000EF86E00EE42F010EE12F00900F5CFFD
:10228000EEFFE550E150FAE100EE60F0240EEE6A58
:10229000E806FDE100EE2DF0150EEE6AE806FDE120
:1022A00057905792000139EF08F0010E116E0D5052
:1022B000D8A45DEF11F05FEF11F063EF11F0000EA5
:1022C000116E83EF11F0000E126E0D501224056E88
:1022D00012C00FF00EC010F00F2A71EF11F0D8905D
:1022E00010320F2E6FEF11F01050010B066E94ECB0
:1022F0000AF01116122A030E126481EF11F083EF17
:1023000011F065EF11F0115012001350D8A48BEFAB
:1023100011F08DEF11F091EF11F0000E156EB2EF8C
:1023200011F01350040F056E010E066E94EC0AF0C6
:10233000156E13C00DF014380F0B0E6E55EC11F026
:10234000156E13C00DF053EC12F0156E13C00DF0A6
:1023500014C00EF055EC11F0156E13C00DF053ECD7
:1023600012F0156E155012001350D8A4BAEF11F0E8
:10237000BCEF11F0C0EF11F0000E156EE1EF11F09F
:102380001350040F056E000E066E94EC0AF0156EE5
:1023900013C00DF014380F0B0E6E55EC11F0156EC6
:1023A00013C00DF053EC12F0156E13C00DF014C0F5
:1023B0000EF055EC11F0156E13C00DF053EC12F049
:1023C000156E15501200056E3B50D8B4EAEF11F0AF
:1023D000ECEF11F0E4EF11F09DB8F1EF11F0F3EF35
:1023E00011F0F7EF11F005C0ADFF0AEF12F09D9864
:1023F0003D50680FD96EDA6A05C0DFFF3D2A070E2F
:102400003D6405EF12F007EF12F009EF12F0000E35
:102410003D6E3B069D8812001C50D8B412EF12F09E
:1024200014EF12F01CEF12F01F50D8A41AEF12F0A4
:102430001CEF12F020EF12F0000E206E2FEF12F0C2
:102440001CC016F01DC017F01EC018F0EAEC0EF00C
:102450001CC016F01FC017F097EC0FF0206E205034
:102460001200000EF2BE010E086E0650030BAA6E9B
:1024700005C0A9FF07C0A8FFA69EA69CA684F29E41
:10248000550EA76EAA0EA76EA682A6B24AEF12F04C
:102490004CEF12F045EF12F0A69408B002D0F29E75
:1024A00001D0F28E12000D50D8A459EF12F05BEF5C
:1024B00012F05FEF12F0000E0E6E72EF12F00D5080
:1024C000050F056E010E066E94EC0AF0030EE82E61
:1024D000FED700000D50050F056E000E066E94EC41
:1024E0000AF00E6E0E501200080E3B607AEF12F0EA
:1024F0007CEF12F090EF12F03C50680FD96EDA6A60
:10250000DF50AD6E3C2A070E3C6489EF12F08BEF72
:1025100012F08DEF12F0000E3C6E3B2A91EF12F09C
:102520009D981200010E066E200E056E11EC13F040
:10253000096E09500C6E0D6A010E066E210E056EB5
:1025400011EC13F0096E09500B6E0A6A0A500C1256
:102550000B500D120CC007F00DC008F01200000E59
:102560008D6E000E8C6E000E896E000E8A6E000E4F
:102570008B6E070E966E92689368970E946EFE0EA1
:10258000956E7E681F0E7F6E000E7C6EF18E1200BF
:102590004C0E166EACEC0BF0566E980E106EF2EC04
:1025A00010F0566E410E106EBDEC10F0566E520ECD
:1025B000106E29EC0EF0566E120005500702F3CF94
:1025C00009F0F4CF0AF005500802F3500A2606502D
:1025D0000702F3500A2609C005F00AC006F01200EF
:1025E0003A50600FD96EDA6AAECFDFFF3A2A070E93
:1025F0003A64FDEF12F0FFEF12F001EF13F0000E5E
:102600003A6E382A1200890F8A0F8B0F8C0F8D0FAC
:10261000800F810F820F830F840F1E1F2021908D4A
:102620008E8F0650030BAA6E05C0A9FFA69CA69E1E
:10263000A68000000000A850120069EC13F03CECEA
:1026400013F0AFEC12F045EC13F015EC10F01200A3
:102650003B50D8A42EEF13F031EF13F0010E32EF00
:1026600013F0000E1200920F930F940F950F960F18
:102670001A1B1C1D18191020400EC76E000EC66EC6
:10268000010EC86E9496C69A1200300ED36E000EDC
:102690009B6E120005C054F006C055F0120005C034
:1026A000A6F006C0A7F0120005C0A2F006C0A3F075
:1026B000120005C0A4F006C0A5F0120005C0A0F0ED
:1026C00006C0A1F01200AB98AB881200F0EC12F03B
:0826D0001200D09E120012005E
:020000040030CA
:0E000000FF021F1EFF8B85FF0FC00FE00F4099
:00000001FF
