:0400000079EF0BF099
:10100000003738392F3435362A3132332D23303DED
:101010002B2057656C636F6D00252E316600252EE1
:07102000366600256900009F
:10102800010E336E2D50D8B41CEF08F01EEF08F0F7
:101038003CEF08F02D50D96EDA6ADF50070B2E6EA0
:10104800080E2E602AEF08F02CEF08F03CEF08F0AD
:101058002D50D96EDA6ADF30E832E832070B2E6E8F
:10106800040E2E643AEF08F03CEF08F093EF08F016
:10107800000E336EB3EF08F02D50D96EDA6ADF50E8
:10108800070B2E6E010E2F6E2E2A4DEF08F0D8900A
:101098002F362E2E4BEF08F02F50FF0A306E2D50B2
:1010A800D96EDA6ADF30E832E832070B020DF35006
:1010B800150FD96EDA6ADECF31F0DDCF32F031C0EC
:1010C800D9FF32C0DAFF3050DF16B3EF08F02D50E9
:1010D800D96EDA6ADF50070B2E6E010E2F6E2E2A9C
:1010E80078EF08F0D8902F362E2E76EF08F02D5096
:1010F800D96EDA6ADF30E832E832070B020DF350B6
:10110800150FD96EDA6ADECF30F0DDCF31F030C09E
:10111800D9FF31C0DAFF2F50DF12B3EF08F02D509E
:10112800D96EDA6ADFBE9BEF08F09EEF08F0010E79
:101138009FEF08F0000E2E6E2F6A2F50000AD8B4C9
:10114800A8EF08F03CEF08F02E50000AD8B440EFA2
:1011580008F0010AD8B46BEF08F03CEF08F0335000
:101168001200010E346E2D50D8B4BDEF08F0BFEF59
:1011780008F0DDEF08F02D50D96EDA6ADF50070B62
:101188002F6E080E2F60CBEF08F0CDEF08F0DDEFE3
:1011980008F02D50D96EDA6ADF30E832E832070BF2
:1011A8002F6E040E2F64DBEF08F0DDEF08F0E1EF9F
:1011B80008F0000E346E42EF09F02E04D8A4E7EFD1
:1011C80008F0E9EF08F011EF09F02D50D96EDA6A4E
:1011D800DF50070B2F6E010E306E2F2AF6EF08F046
:1011E800D89030362F2EF4EF08F02D50D96EDA6AE9
:1011F800DF30E832E832070B020DF350010FD96EE9
:10120800DA6ADECF31F0DDCF32F031C0D9FF32C03B
:10121800DAFF3050DF1242EF09F02E50D8A417EF52
:1012280009F019EF09F0DDEF08F02D50D96EDA6AF0
:10123800DF50070B2F6E010E306E2F2A26EF09F0B4
:10124800D89030362F2E24EF09F03050FF0A316E37
:101258002D50D96EDA6ADF30E832E832070B020D1A
:10126800F350010FD96EDA6ADECF32F0DDCF33F0FA
:1012780032C0D9FF33C0DAFF3150DF1634501200C4
:10128800000E406E3E50D8A44CEF09F04EEF09F026
:1012980052EF09F0000E416EB9EF09F03E50040F0D
:1012A800356E5BEC0AF0416E3E50050F356E5BEC17
:1012B8000AF0416E000E406E3E504024356E5BECE5
:1012C8000AF0402A030E40646CEF09F06EEF09F053
:1012D80060EF09F0270E3F6EF50EE82EFED73F2E81
:1012E800FCD700003EC03BF0380E3C6E29EC0BF0FA
:1012F8000D0E3F6EFC0EE82EFED73F2EFCD73EC0EB
:101308003BF0380E3C6E29EC0BF0420EE82EFED76F
:1013180000F000F03EC03BF0380E3C6E29EC0BF0BC
:101328003EC03BF0010E3C6E29EC0BF03EC03BF09A
:10133800020E3C6E29EC0BF03EC03BF0060E3C6EF4
:1013480029EC0BF03EC03BF00C0E3C6E29EC0BF088
:101358003EC03BF0280E3C6E29EC0BF03EC03BF043
:10136800800E3C6E29EC0BF0416E41501200270EA6
:101378003E6E110E3F6E1CEC0AF04C6E020E446E6F
:10138800040E436EBA0EE82EFED7432EFCD7442E29
:10139800FAD700F000F0000E456E270E3B6E1C0ECB
:1013A8003C6E29EC0BF04C6E020E446E040E436E3C
:1013B800BA0EE82EFED7432EFCD7442EFAD700F0FB
:1013C80000F0452A070E4564ECEF09F0EEEF09F04E
:1013D800D1EF09F0000E456E270E3B6E180E3C6EDD
:1013E80029EC0BF04C6E020E446E040E436EBA0EDE
:1013F800E82EFED7432EFCD7442EFAD700F000F093
:10140800452A070E45640BEF0AF00DEF0AF0F0EFDE
:1014180009F0270E3B6E010E3C6E29EC0BF04C6E6A
:10142800270E3B6E020E3C6E29EC0BF04C6E120040
:10143800010E416E3E50D8B424EF0AF026EF0AF0B0
:101448002EEF0AF03F50D8A42CEF0AF02EEF0AF046
:1014580032EF0AF0000E416E59EF0AF0000E426EAC
:10146800000E426E48EF0AF03EC03BF03F50422467
:10147800406E40C0F6FF100EF76E0800F5CF3CF046
:10148800FAEC0AF04116422A3F504224406E40C00E
:10149800F6FF100EF76E0800F5500009D8A457EFB4
:1014A8000AF059EF0AF038EF0AF0415012003550AF
:1014B800D8B461EF0AF063EF0AF081EF0AF0355013
:1014C800D96EDA6ADF50070B366E080E36606FEF9A
:1014D8000AF071EF0AF081EF0AF03550D96EDA6A36
:1014E800DF30E832E832070B366E040E36647FEFE1
:1014F8000AF081EF0AF085EF0AF0000E376E96EFDA
:101508000AF035C02DF014EC08F0376E35C02DF018
:101518003550D96EDA6A000EDFBC010E2E6EB5ECBE
:1015280008F0376E375012003850D8A49EEF0AF0F2
:10153800A0EF0AF0A4EF0AF0000E396EC8EF0AF027
:10154800000E3A6E000E3A6E38503A24356E5BEC57
:101558000AF03A2A030E3A64B4EF0AF0B6EF0AF03A
:10156800A8EF0AF0000E3B6E38503B24040F2D6E96
:1015780014EC08F0396E3B2A030E3B64C6EF0AF000
:10158800C8EF0AF0B8EF0AF039501200010E396EB0
:101598003550D8A4D2EF0AF0D4EF0AF0D8EF0AF009
:1015A800000E396EF8EF0AF0000E3A6E35503A2404
:1015B8002D6E3AC037F036C038F0372AE6EF0AF019
:1015C800D8903832372EE4EF0AF03850010B2E6EDF
:1015D800B5EC08F039163A2A030E3A64F6EF0AF029
:1015E800F8EF0AF0DAEF0AF0395012003B50D8A4AD
:1015F80000EF0BF002EF0BF006EF0BF0000E3D6E64
:1016080027EF0BF03B50040F2D6E010E2E6EB5EC3C
:1016180008F03D6E3BC035F03C380F0B366ECAEC17
:101628000AF03D6E3BC035F058EC0BF03D6E3BC008
:1016380035F03CC036F0CAEC0AF03D6E3BC035F0E0
:1016480058EC0BF03D6E3D5012003B50D8A42FEFE4
:101658000BF031EF0BF035EF0BF0000E3D6E56EF4F
:101668000BF03B50040F2D6E000E2E6EB5EC08F0FB
:101678003D6E3BC035F03C380F0B366ECAEC0AF0B5
:101688003D6E3BC035F058EC0BF03D6E3BC035F07D
:101698003CC036F0CAEC0AF03D6E3BC035F058EC61
:1016A8000BF03D6E3D5012003550D8A45EEF0BF0A4
:1016B80060EF0BF064EF0BF0000E366E77EF0BF077
:1016C8003550050F2D6E010E2E6EB5EC08F0030E89
:1016D800E82EFED700003550050F2D6E000E2E6E39
:1016E800B5EC08F0366E36501200580EF66E170E2E
:1016F800F76E000EF86E00EE01F010EE2CF0090007
:10170800F5CFEEFFE550E150FAE14B6A4A6A496AC3
:10171800486A476A466A000EF86E0001CDEF0BF082
:10172800000E8D6E000E8C6E000E896E000E8A6E95
:10173800000E8B6E070E966E926893689468FE0E84
:10174800956E7E681F0E7F6E000E7C6EF18E120005
:10175800890F8A0F8B0F8C0F8D0F800F810F820FCF
:10176800830F840F920F930F940F950F960F1E1FE0
:1017780022208C8D8E8F1A1B1C1D1819270E3E6E69
:1017880044EC09F04C6E1F0E386E98EC0AF04C6E63
:101798001200D7EC0BF0C2EC0BF0BBEC09F0D3EF66
:1017A8000BF000EF00F094EC0BF0DCEC0BF0120007
:0A17B800300ED36E000E9B6E12007F
:020000040030CA
:0E000000FF021F1EFF8B85FF0FC00FE00F4099
:00000001FF
