:04000000B5EF20F048
:10100000003738392F3435362A3132332D23303DED
:101010002B504C6561736520536574205061737368
:10102000776F7264002057656C636F6D00252E31F9
:101030006600252E366600696E66006E616E0025BC
:07104000690020002A0000F6
:10104800000E0001816F2FC082F030C083F031C0E4
:1010580084F032C085F085BF36EF08F034EF08F031
:101068004AEF08F0010E816F82C001F083C002F0E0
:1010780084C003F085C004F0D8EC21F001C082F0F0
:1010880002C083F003C084F004C085F0000E0001A4
:10109800876F000E866F4FC071F050C072F081519B
:1010A800D8B459EF08F05BEF08F06FEF08F0815102
:1010B800D8A461EF08F063EF08F069EF08F0000EBC
:1010C800676F2B0E666F6DEF08F0000E676F2D0EC1
:1010D800666F66C081F082C001F083C002F084C0F0
:1010E80003F085C004F0B3EC19F001040210D8A491
:1010F80080EF08F082EF08F0B1EF08F000018151AD
:10110800D8B489EF08F08BEF08F094EF08F081C0AD
:1011180000F17107D8A07207000E876F010E866F65
:10112800000E8625016E010E8721026E370E036EB2
:1011380082EC21F00001FD0E7127FF0E72232EC0F4
:101148000FF0000E106E010E116E71C012F072C019
:1011580013F047EC1FF018EF0DF082C001F083C0C8
:1011680002F084C003F085C004F0B3EC19F001501C
:101178000210D8A4C2EF08F0C4EF08F0E2EF08F0BC
:1011880000018151D8B4CBEF08F0CDEF08F0D6EFCD
:1011980008F081C000F17107D8A07207000E876FB0
:1011A800010E866F000E8625016E010E8721026EE4
:1011B8003B0E036E82EC21F09EEF08F0000E00015A
:1011C800886F000E896F800E8A6F3F0E8B6F000E3E
:1011D800706F000E6F6F82C001F083C002F084C090
:1011E80003F085C004F0000E056E000E066E000EBA
:1011F800076E000E086E51EC1DF0D8B006EF09F02E
:1012080008EF09F0E7EF09F015EF09F073C088F06F
:1012180074C089F075C08AF076C08BF000016F4BFE
:10122800702B88C001F089C002F08AC003F08BC01F
:1012380004F0000E056E000E066E200E076E410EBD
:10124800086E79EC0FF001C073F002C074F003C0AF
:1012580075F004C076F000017351825D016E74511F
:101268008359026E75518459036E76518559046EFF
:101278003AEC20F004BE4CEF09F0045003100210C1
:1012880009E1020E015CD8A04CEF09F04EEF09F01D
:101298000AEF09F073C01AF074C01BF075C01CF097
:1012A80076C01DF082C01EF083C01FF084C020F0FD
:1012B80085C021F031EC19F0D8A065EF09F067EF8F
:1012C80009F00AEF09F000018851825D016E895129
:1012D8008359026E8A518459036E8B518559046E65
:1012E8003AEC20F004BE86EF09F004500310021017
:1012F80007E1020E015CD8B084EF09F086EF09F02F
:10130800CEEF09F088C082F089C083F08AC084F0EB
:101318008BC085F0E7EF09F088C001F089C002F0C2
:101328008AC003F08BC004F0000E056E000E066E36
:10133800200E076E410E086E8EEC11F001C088F089
:1013480002C089F003C08AF004C08BF000016F0767
:10135800D8A070078851825D016E89518359026E49
:101368008A518459036E8B518559046E3AEC20F0EA
:1013780004BECCEF09F004500310021007E1020E7E
:10138800015CD8B0CAEF09F0CCEF09F0CEEF09F054
:1013980086EF09F082C01AF083C01BF084C01CF0ED
:1013A80085C01DF088C01EF089C01FF08AC020F0DB
:1013B8008BC021F031EC19F0D8A0E5EF09F0E7EF88
:1013C80009F090EF09F033C069F069C06AF052BEC5
:1013D800F0EF09F0F2EF09F0F8EF09F051C062F010
:1013E80052C063F0FDEF09F0000E0001636F060EB6
:1013F800626F62C06DF063C06EF000016D4B6E2BC2
:10140800660E6A19D8A40BEF0AF00DEF0AF02DEF5B
:101418000AF070BF14EF0AF012EF0AF020EF0AF09A
:10142800000E886F000E896F800E8A6F3F0E8B6FDB
:10143800000E706F000E6F6F670E6919D8B427EF32
:101448000AF029EF0AF02DEF0AF06F516D2770515D
:101458006E23000E786F000E776F82C079F083C01C
:101468007AF084C07BF085C07CF088C073F089C0B6
:1014780074F08AC075F08BC076F0BEEF0AF079C0C0
:1014880001F07AC002F07BC003F07CC004F088C091
:1014980005F089C006F08AC007F08BC008F08EEC12
:1014A80011F001C01AF002C01BF003C01CF004C008
:1014B8001DF09CEC14F01AC07DF01BC07EF01CC01F
:1014C8007FF01DC080F07DC001F07EC002F07FC0BB
:1014D80003F080C004F0AEEC18F001C06BF002C05D
:1014E8006CF079C01AF07AC01BF07BC01CF07CC08D
:1014F8001DF07DC005F07EC006F07FC007F080C0FB
:1015080008F088C001F089C002F08AC003F08BC0DF
:1015180004F079EC0FF001C01EF002C01FF003C008
:1015280020F004C021F0DCEC20F01AC079F01BC0D8
:101538007AF01CC07BF01DC07CF088C001F089C027
:1015480002F08AC003F08BC004F0000E056E000E96
:10155800066E200E076E410E086E8EEC11F001C06B
:1015680088F002C089F003C08AF004C08BF0000143
:10157800774B782B6D51775D7851800A346E6E51B8
:10158800800A3458D8A0CBEF0AF0CDEF0AF043EF29
:101598000AF088C001F089C002F08AC003F08BC04D
:1015A80004F0000E056E000E066EA00E076E400ECB
:1015B800086E79EC0FF001C07DF002C07EF003C028
:1015C8007FF004C080F079C01AF07AC01BF07BC0AD
:1015D8001CF07CC01DF07DC01EF07EC01FF07FC0D7
:1015E80020F080C021F031EC19F0D8B0FEEF0AF0FD
:1015F80000EF0BF00BEF0BF0000E00017D6F000EFB
:101608007E6F000E7F6F000E806F34EF0BF079C095
:1016180001F07AC002F07BC003F07CC004F07DC00A
:1016280005F07EC006F07FC007F080C008F051ECDE
:101638001DF0D8A022EF0BF024EF0BF034EF0BF0E5
:1016480000016BB12AEF0BF02CEF0BF034EF0BF02D
:10165800000E7D6F000E7E6F000E7F6F000E806F94
:1016680082C001F083C002F084C003F085C004F09A
:101678007DC005F07EC006F07FC007F080C008F08E
:1016880019EC0DF001C079F002C07AF003C07BF0CC
:1016980004C07CF079C01AF07AC01BF07BC01CF043
:1016A8007CC01DF0000E056E000E066E200E076E43
:1016B800410E086E73C001F074C002F075C003F0EB
:1016C80076C004F079EC0FF001C01EF002C01FF0E4
:1016D80003C020F004C021F031EC19F0D8A077EF56
:1016E8000BF079EF0BF0A2EF0BF000016F4B702BB2
:1016F80073C001F074C002F075C003F076C004F046
:10170800000E056E000E066E200E076E410E086E66
:1017180079EC0FF001C073F002C074F003C075F0EB
:1017280004C076F0660E00016A19D8A49EEF0BF08B
:10173800A0EF0BF0A2EF0BF06D4B6E2B73C088F08F
:1017480074C089F075C08AF076C08BF06FC060F005
:1017580070C061F0000E0001686F000E656F000E2A
:10176800646F000E786F000E776FA0EF0CF079C0F1
:1017780001F07AC002F07BC003F07CC004F088C09E
:1017880005F089C006F08AC007F08BC008F08EEC1F
:1017980011F001C01AF002C01BF003C01CF004C015
:1017A8001DF09CEC14F01AC07DF01BC07EF01CC02C
:1017B8007FF01DC080F07DC001F07EC002F07FC0C8
:1017C80003F080C004F0AEEC18F002BEF7EF0BF0A7
:1017D800025007E10A0E015CD8B0F5EF0BF0F7EF05
:1017E8000BF007EF0CF07DC001F07EC002F07FC067
:1017F80003F080C004F0AEEC18F001C06BF002C03A
:101808006CF00CEF0CF0000E00016C6F090E6B6FA2
:1018180000016851D8A413EF0CF015EF0CF03DEF60
:101828000CF061BF1CEF0CF01AEF0CF03DEF0CF060
:10183800000E8625D96E010E8721DA6E2E0EDF6E18
:10184800864B872B7107D8A07207010E686F3DEF92
:101858000CF0000E8625D96E010E8721DA6E300E47
:10186800DF6E864B872B7107D8A072076407D8A054
:10187800650764516511D8A444EF0CF046EF0CF0ED
:101888002DEF0CF0000E8625D96E010E8721DA6E39
:101898006B51300FDF6E864B872B7107D8A072070C
:1018A80079C01AF07AC01BF07BC01CF07CC01DF018
:1018B8007DC005F07EC006F07FC007F080C008F04C
:1018C80088C001F089C002F08AC003F08BC004F020
:1018D80079EC0FF001C01EF002C01FF003C020F029
:1018E80004C021F0DCEC20F01AC079F01BC07AF0BB
:1018F8001CC07BF01DC07CF088C001F089C002F0DC
:101908008AC003F08BC004F0000E056E000E066E50
:10191800200E076E410E086E8EEC11F001C088F0A3
:1019280002C089F003C08AF004C08BF00001600790
:10193800D8A06107774B782B6D51775D7851800A75
:10194800346E6E51800A3458D8B0ADEF0CF0AFEF5A
:101958000CF0BDEF0CF087BFBBEF0CF0875109E12D
:101968004B0E865DD8A0BBEF0CF0BDEF0CF0BBEFC3
:101978000BF0000E786F4F0E776F000E7725D96E3B
:10198800010E7821DA6EDF6A000E346E010E356EB4
:101998008651345E8751355A77513424016E785117
:1019A8003520026E000E036E010E046E86C005F02F
:1019B80087C006F065EC20F000018651775D866FE0
:1019C80087517859876F8151D8A4EDEF0CF0F0EF6B
:1019D8000CF0010EF1EF0CF0000E776F786B81516F
:1019E800D8B4F9EF0CF0FBEF0CF006EF0DF086071A
:1019F800D8A08707000E8625D96E010E8721DA6EDA
:101A080081C0DFFF7751715F7851725B2EC00FF094
:101A1800000E8625106E010E8721116E71C012F01E
:101A280072C013F047EC1FF012000450800B0D6ECB
:101A3800045004240F6E03AE24EF0DF026EF0DF0D2
:101A480027EF0DF00F800F50D8B42DEF0DF02FEFCA
:101A58000DF044EF0DF00F28D8A435EF0DF037EF57
:101A68000DF03FEF0DF0000E016E000E026E000E3D
:101A7800036E000E046E038E000E046E4CEF0DF024
:101A8800000E016E000E026E000E036E000E046E54
:101A98000850800B0E6E0D500E18D8B456EF0DF08E
:101AA80058EF0DF059EF0DF00D8C085008240E6E0C
:101AB80007AE61EF0DF063EF0DF064EF0DF00E80EF
:101AC8000E50D8B46AEF0DF06CEF0DF081EF0DF009
:101AD8000E28D8A472EF0DF074EF0DF07CEF0DF026
:101AE800000E056E000E066E000E076E000E086EE4
:101AF800078E000E086E89EF0DF0000E056E000EC1
:101B0800066E000E076E000E086E0F500E5CD8B001
:101B180090EF0DF092EF0DF0B9EF0DF00DAC97EFDF
:101B28000DF099EF0DF09BEF0DF0800E0D1A0FC020
:101B380010F00EC00FF010C00EF001C010F005C07C
:101B480001F010C005F002C010F006C002F010C08D
:101B580006F003C010F007C003F010C007F004C07F
:101B680010F008C004F010C008F0000E106E0F50FE
:101B78000EC009F00A6A095E000E0A5A0ABECEEFC4
:101B88000DF00A5009E11A0E095CD8A0CEEF0DF04D
:101B9800D0EF0DF007EF0EF0015002100310041003
:101BA800D8A4D9EF0DF0DCEF0DF0010EDDEF0DF04C
:101BB800000E106E000E016E000E026E000E036E17
:101BC800000E046E0EC00FF010EF0EF010A0EFEF35
:101BD8000DF0F1EF0DF0F7EF0DF0D890103001098E
:101BE800106EF9EF0DF0D890103201A0FEEF0DF055
:101BF80000EF0EF001EF0EF0108E043404320332C1
:101C0800023201320F2A0E500F5CD8A00EEF0EF0F0
:101C180010EF0EF0EAEF0DF00DBC15EF0EF017EF18
:101C28000EF057EF0EF00F50D8A41DEF0EF01FEF77
:101C38000EF029EF0EF0000E016E000E026E000E7F
:101C4800036E000E046E78EF0FF005500126065063
:101C58000222075003220850042204A036EF0EF097
:101C680038EF0EF0E4EF0EF010A03DEF0EF03FEF6E
:101C78000EF045EF0EF0D89010300109106E47EFC6
:101C88000EF0D890103201A04CEF0EF04EEF0EF08F
:101C98004FEF0EF0108E0434043203320232013258
:101CA8000F2AE4EF0EF00550015C06500258075069
:101CB80003580450800A096E0850800A0958D8B0A1
:101CC80068EF0EF06AEF0EF095EF0EF00150055C2C
:101CD800096E025006580A6E035007580B6E0450DE
:101CE80008580C6EFF0E0924016EFF0E0A20026EC2
:101CF800FF0E0B20036EFF0E0C20046E800E0D1AD3
:101D0800106C1050D8A48BEF0EF08DEF0EF09DEFF5
:101D18000EF0010E0126000E0222032204229DEF7E
:101D28000EF00550015E0650025A0750035A08503B
:101D3800045A0150021003100410D8A4A6EF0EF0A4
:101D4800A8EF0EF0DDEF0EF01050D8A4AEEF0EF0B5
:101D5800B0EF0EF0DDEF0EF0000E016E000E026E19
:101D6800000E036E000E046E78EF0FF0D890013667
:101D780002360336043610AEC4EF0EF0C6EF0EF08E
:101D8800C7EF0EF0018010A0CCEF0EF0CEEF0EF0F2
:101D9800D2EF0EF0D8801036D4EF0EF0D89010366F
:101DA8000F50D8B4DAEF0EF0DCEF0EF0DDEF0EF0E6
:101DB8000F0603AEE2EF0EF0E4EF0EF0BAEF0EF00E
:101DC800000E0E6E10AEEBEF0EF0EDEF0EF005EF1D
:101DD8000FF010C009F07F0E0916D8B4F6EF0EF018
:101DE800F8EF0EF0FCEF0EF0010E0E6E05EF0FF09F
:101DF80001A001EF0FF003EF0FF005EF0FF0F8EF80
:101E08000EF00E50D8B40BEF0FF00DEF0FF038EFC7
:101E18000FF0010E0126000E02220322042204A064
:101E280018EF0FF01AEF0FF038EF0FF001C009F0BC
:101E380002C00AF003C00BF004C00CF00C340C32E2
:101E48000B320A32093209C001F00AC002F00BC095
:101E580003F00CC004F00F28D8B435EF0FF037EFBB
:101E68000FF038EF0FF00F2A0F28D8B43EEF0FF01D
:101E780040EF0FF048EF0FF00F50D8A446EF0FF0E7
:101E880048EF0FF05AEF0FF0000E016E000E026ED1
:101E9800000E036E000E046E0F50D8A456EF0FF01C
:101EA80058EF0FF05AEF0FF0000E0D6E0FA05FEF16
:101EB8000FF061EF0FF064EF0FF0038E65EF0FF096
:101EC800039ED8900F30046E0DAE6DEF0FF06FEFDC
:101ED8000FF070EF0FF0048E01C001F002C002F0A5
:101EE80003C003F004C004F012000450800B0D6E10
:101EF80004500424136E03AE84EF0FF086EF0FF046
:101F080087EF0FF013801350D8B48DEF0FF08FEFD9
:101F18000FF0A2EF0FF01328D8A495EF0FF097EF6A
:101F28000FF09FEF0FF0000E016E000E026E000E14
:101F3800036E000E046E038EAAEF0FF0000E016E02
:101F4800000E026E000E036E000E046E0850800B29
:101F58000D1A085008240E6E07AEB5EF0FF0B7EF54
:101F68000FF0B8EF0FF00E800E50D8B4BEEF0FF0A0
:101F7800C0EF0FF0D3EF0FF00E28D8A4C6EF0FF084
:101F8800C8EF0FF0D0EF0FF0000E056E000E066ED2
:101F9800000E076E000E086E078EDBEF0FF0000EC6
:101FA800056E000E066E000E076E000E086E0E50CF
:101FB800D8B4E1EF0FF0E3EF0FF0EBEF0FF01350B1
:101FC800D8A4E9EF0FF0EBEF0FF0F5EF0FF0000EEC
:101FD800016E000E026E000E036E000E046E8DEF91
:101FE80011F007500102F3CF18F0F4CF19F0185090
:101FF8000F6E106A116A126A1950146E156A166A01
:10200800176A06500202F3CF18F0F4CF19F01850EF
:102018000F26000E10221122122219501426000E2B
:1020280015221622172205500302F3CF18F0F4CF19
:1020380019F018500F26000E1022112212221950E2
:102048001426000E15221622172211C012F010C0F5
:1020580011F00FC010F00F6A05500202F3CF18F00C
:10206800F4CF19F018500F2619501022000E112223
:10207800000E122206500102F3CF18F0F4CF19F027
:1020880018500F2619501022000E1122000E12228D
:1020980011C012F010C011F00FC010F00F6A0550F7
:1020A8000102F3CF18F0F4CF19F018500F26195089
:1020B8001022000E1122000E122207500202F3CF46
:1020C80018F0F4CF19F01850142619501522000EE4
:1020D8001622000E172206500302F3CF18F0F4CF91
:1020E80019F01850142619501522000E1622000E49
:1020F800172207500302F3CF18F0F4CF19F0185045
:10210800096E19500A6E0B6A0C6A0BC00CF00AC0F3
:102118000BF009C00AF0096A095014260A50152262
:102128000B5016220C5017220FC009F010C00AF0ED
:1021380011C00BF012C00CF0190EA8EF10F0D890D7
:102148000C320B320A320932E82EA3EF10F0095094
:1021580014260A5015220B5016220C50172211C0B3
:1021680012F010C011F00FC010F00F6A0E5013C01B
:1021780009F00A6A0926000E0A22820E0924186E3E
:10218800FF0E0A20196EDEEF10F0D89014361536BF
:102198001636173612AED3EF10F0D5EF10F0D6EF93
:1021A80010F01480D8900F361036113612361806F3
:1021B800D8A0190616AEE3EF10F0E5EF10F0C9EF5E
:1021C80010F0000E0E6E12AEECEF10F0EEEF10F005
:1021D80012EF11F0FF0E0F14096EFF0E10140A6EA5
:1021E800FF0E11140B6E7F0E12140C6E09500A109C
:1021F8000B100C10D8B403EF11F005EF11F009EF34
:1022080011F0010E0E6E12EF11F014A00EEF11F086
:1022180010EF11F012EF11F005EF11F00E50D8B4D5
:1022280018EF11F01AEF11F03EEF11F0010E14261D
:10223800000E15221622172217A025EF11F027EFFE
:1022480011F03EEF11F014C009F015C00AF016C0E5
:102258000BF017C00CF00C340C320B320A32093276
:1022680009C014F00AC015F00BC016F00CC017F026
:10227800184A192A19BE49EF11F0195008E118280F
:10228800D8A049EF11F04BEF11F055EF11F0000E07
:10229800146E000E156E800E166E7F0E176E83EF8D
:1022A80011F019BE62EF11F0195006E11804D8B008
:1022B80060EF11F062EF11F06EEF11F0000E146E86
:1022C800000E156E000E166E000E176E000E0D6EC7
:1022D80083EF11F018C013F0FF0E1416FF0E151639
:1022E8007F0E1616000E171613A07DEF11F07FEF64
:1022F80011F080EF11F0168ED8901330176E0D5034
:10230800171214C001F015C002F016C003F017C070
:1023180004F012000450800B116E04500424186E4F
:1023280003AE99EF11F09BEF11F09CEF11F01880BC
:102338001850D8B4A2EF11F0A4EF11F0B9EF11F0D2
:102348001828D8A4AAEF11F0ACEF11F0B4EF11F0EF
:10235800000E016E000E026E000E036E000E046E7B
:10236800038E000E046EC1EF11F0000E016E000E18
:10237800026E000E036E000E046E0850800B111AD8
:1023880008500824196E07AECCEF11F0CEEF11F00B
:10239800CFEF11F019801950D8B4D5EF11F0D7EF5D
:1023A80011F0ECEF11F01928D8A4DDEF11F0DFEFF0
:1023B80011F0E7EF11F0000E056E000E066E000E2C
:1023C800076E000E086E078E000E086EF4EF11F00F
:1023D800000E056E000E066E000E076E000E086EEB
:1023E8000550061007100810D8A4FDEF11F0FFEFF4
:1023F80011F017EF12F0000E016E000E026E000EC3
:10240800036E000E046E800E03127F0E041211502C
:10241800041201C001F002C002F003C003F004C0BE
:1024280004F05AEF13F01850D8A41DEF12F01FEF64
:1024380012F029EF12F0000E016E000E026E000E6F
:10244800036E000E046E5AEF13F0195018C009F00D
:102458000A6A095E000E0A5A7F0E0924126E000EDF
:102468000A20136E01C00DF002C00EF003C00FF079
:1024780004C010F0000E016E000E026E000E036E16
:10248800000E046E000E146E000E156E000E166E11
:10249800000E176E000E196E8AEF12F01950D8B49C
:1024A80058EF12F05AEF12F071EF12F0D8900D3683
:1024B8000E360F361036D8900136023603360436FB
:1024C80017AE69EF12F06BEF12F06CEF12F00180AB
:1024D800D890143615361636173605500D5C06504A
:1024E8000E5807500F5808501058D8A07EEF12F019
:1024F80080EF12F089EF12F0178C05500D5E065030
:102508000E5A07500F5A0850105A192A190E1964F2
:1025180090EF12F092EF12F052EF12F00D500E10F1
:102528000F101010D8B49BEF12F09DEF12F0B5EF1A
:1025380012F01480B5EF12F0D89001360236033647
:10254800043617AEAAEF12F0ACEF12F0ADEF12F0AE
:102558000180D89014361536163617361206D8A0CC
:10256800130603AEBAEF12F0BCEF12F0A0EF12F0B0
:10257800000E196E17AEC3EF12F0C5EF12F0E9EFB7
:1025880012F0FF0E1414096EFF0E15140A6EFF0EDA
:1025980016140B6E7F0E17140C6E09500A100B10D0
:1025A8000C10D8B4DAEF12F0DCEF12F0E0EF12F012
:1025B800010E196EE9EF12F001A0E5EF12F0E7EF56
:1025C80012F0E9EF12F0DCEF12F01950D8B4EFEF87
:1025D80012F0F1EF12F015EF13F0010E0126000EC4
:1025E80002220322042204A0FCEF12F0FEEF12F0F4
:1025F80015EF13F001C009F002C00AF003C00BF098
:1026080004C00CF00C340C320B320A32093209C007
:1026180001F00AC002F00BC003F00CC004F0124A2B
:10262800132A13BE20EF13F0135008E11228D8A084
:1026380020EF13F022EF13F02DEF13F0000E136EBE
:102648001268000E016E000E026E000E036E000E80
:10265800046E13BE3AEF13F0135006E11204D8B01B
:1026680038EF13F03AEF13F048EF13F0000E136E43
:10267800000E126E000E016E000E026E000E036E4A
:10268800000E046E000E116E12C018F018A04FEF65
:1026980013F051EF13F054EF13F0038E55EF13F0CE
:1026A800039ED8901830046E0BEF12F012003750CA
:1026B800D96EDA6ADFCFF6FF100EF76E0800F55014
:1026C800250AD8A46AEF13F06CEF13F08AEF14F020
:1026D8003750D96EDA6ADF2A000E506E000E4F6E40
:1026E8004FC055F0516852683750D96EDA6ADFCF5B
:1026F800F6FF100EF76E0800F5502E0AD8A487EFE3
:1027080013F089EF13F097EF13F03750D96EDA6AA8
:10271800DF2A37C007F038C008F0FBEC1DF007C00F
:1027280051F008C052F03750D96EDA6ADF50406E67
:1027380040C0F6FF100EF76E0800F550640AD8B4D2
:10274800A8EF13F0AAEF13F0B8EF13F040C0F6FFAC
:10275800100EF76E0800F550690AD8A4B6EF13F00A
:10276800B8EF13F0D3EF13F03850D96EDA6A020ECF
:10277800DF26DF5CD96EDA6ADECF3BF0DECF3CF0D5
:102788003750D96EDA6A4028DF6E36C017F03BC082
:1027980018F03CC019F0A5EC15F09BEF14F0375079
:1027A800D96EDA6ADF50406E40C0F6FF100EF76E41
:1027B8000800F5CF3FF0ECEF13F0402A05EF14F0D6
:1027C8006C0E3F6E05EF14F0000E3F6E05EF14F02F
:1027D8003F50396E3A6A3A50000AD8B4F6EF13F00F
:1027E800E8EF13F039504C0AD8B4E1EF13F02A0A95
:1027F800D8B4E4EF13F00A0AD8B4E1EF13F0E8EF25
:1028080013F040C0F6FF100EF76E0800F550660A88
:10281800D8A411EF14F013EF14F084EF14F03DEF87
:1028280014F03850D96EDA6ADFCF39F0040EDF269B
:102838003950D96EDA6ADECF3BF0DECF3CF0DECF1E
:102848003DF0DECF3EF052EF14F03850D96EDA6A20
:10285800DFCF39F0040EDF263950D96EDA6ADECFC1
:102868003BF0DECF3CF0DECF3DF0DECF3EF052EF66
:1028780014F03F50396E3A6A3A50000AD8B447EF1C
:1028880014F052EF14F039504C0AD8B429EF14F070
:10289800200AD8B415EF14F052EF14F03750D96E5F
:1028A800DA6A4028DF6E6EEF14F036C02EF03BC0B7
:1028B8002FF03CC030F03DC031F03EC032F040C097
:1028C800F6FF100EF76E0800F5CF33F024EC08F091
:1028D8009BEF14F040C0F6FF100EF76E0800F5509D
:1028E800396E3A6A3A50000AD8B47DEF14F084EF92
:1028F80014F03950660AD8B459EF14F084EF14F084
:102908003750D96EDA6ADF2A9BEF14F03750D96E48
:10291800DA6ADFCFF6FF100EF76E0800F550016E89
:10292800026A36C003F0A6EC1DF084EF14F0120022
:10293800D6C02AF0D7C02BF0D8C02CF0D9C02DF0C3
:102948001AC02AF01BC02BF01CC02CF01DC02DF0A3
:10295800810E1E6EFF0E1F6E2AC020F02BC021F0C4
:102968002CC022F02DC023F0180EC0EF14F0D89020
:102978002332223221322032E82EBBEF14F02050CD
:102988001E24286E000E1F20296E29BED5EF14F0D4
:10299800295009E1170E285CD8A0D5EF14F0D7EF1D
:1029A80014F0E1EF14F01AC01AF01BC01BF01CC0A1
:1029B8001CF01DC01DF0A4EF15F029BEE6EF14F0C1
:1029C800E8EF14F058EF15F028C01EF0FF0E1F6E48
:1029D800FF0E206E7F0E216E000E226E1E66F7EF30
:1029E80014F0FFEF14F022342232213220321F3249
:1029F8001E2EF2EF14F01FC024F020C025F021C0D5
:102A080026F022C027F024502A141E6E25502B14BD
:102A18001F6E26502C14206E27502D14216E1E5028
:102A28001F1020102110D8A41CEF15F01EEF15F070
:102A380020EF15F0D7EF14F02AC01EF02BC01FF0BE
:102A48002CC020F02DC021F0200E30EF15F0D890CA
:102A5800213220321F321E32E82E2BEF15F01E5085
:102A68001F1020102110D8B43CEF15F03EEF15F0E0
:102A780046EF15F024502A2625502B2226502C22CA
:102A880027502D22241C1E6E251C1F6E261C206E0E
:102A9800271C216E1E502A161F502B1620502C164C
:102AA80021502D169CEF15F02AC01EF02BC01FF0E8
:102AB8002CC020F02DC021F0200E68EF15F0D89022
:102AC800213220321F321E32E82E63EF15F01E50DD
:102AD8001F1020102110D8A474EF15F076EF15F010
:102AE80080EF15F0000E2A6E000E2B6E000E2C6E75
:102AF800000E2D6E9CEF15F0D8902A341E6E2B34E4
:102B08001F6E2C34206E2D34216E1E501F10201085
:102B18002110D8B492EF15F094EF15F09CEF15F052
:102B2800000E2A6E000E2B6E800E2C6EBF0E2D6EC0
:102B38002AC01AF02BC01BF02CC01CF02DC01DF0B1
:102B4800120019BEAAEF15F0ADEF15F0010EAEEFA9
:102B580015F0000E206E52BEB6EF15F0B4EF15F06A
:102B6800BCEF15F0000E1F6E010E1E6EC0EF15F0C3
:102B780051C01EF052C01FF04FC01CF050C01DF0D5
:102B88002050D8B4CAEF15F0CCEF15F0E3EF15F0EC
:102B98001C06D8A01D062050D8A4D5EF15F0D7EFF5
:102BA80015F0DDEF15F0000E1B6E2B0E1A6EE1EF1F
:102BB80015F0000E1B6E2D0E1A6E1AC020F0000EB6
:102BC800226E4F0E216E000E01014F6F1CEF16F0A2
:102BD8002106D8A02206000E2124D96E010E22203B
:102BE800DA6E18C001F019C002F0000E046E0A0E69
:102BF800036EA1EC1CF001C007F002C008F0F4EC71
:102C080021F00750300FDF6E1E06D8A01F061C06E5
:102C1800D8A01D0618C001F019C002F0000E046EFD
:102C28000A0E036E83EC1BF001C018F002C019F005
:102C380022BE27EF16F0225008E12104D8A027EF82
:102C480016F029EF16F03FEF16F018501910D8A417
:102C580030EF16F032EF16F0ECEF15F01FBE3FEF35
:102C680016F01F5006E11E04D8B03DEF16F03FEFF6
:102C780016F0ECEF15F02050D8B445EF16F047EFFA
:102C880016F052EF16F02106D8A02206000E2124D5
:102C9800D96E010E2220DA6E20C0DFFF17C00FF0B8
:102CA800000E2124106E010E2220116E1CC012F09D
:102CB8001DC013F047EC1FF01200010E076E015003
:102CC800D8B469EF16F06BEF16F089EF16F00150E3
:102CD800D96EDA6ADF50070B026E080E026077EFD2
:102CE80016F079EF16F089EF16F00150D96EDA6A0E
:102CF800DF30E832E832070B026E040E026487EF19
:102D080016F089EF16F0E0EF16F0000E076E00EFF0
:102D180017F00150D96EDA6ADF50070B026E010E08
:102D2800036E022A9AEF16F0D8900336022E98EF17
:102D380016F00350FF0A046E0150D96EDA6ADF30CC
:102D4800E832E832070B020DF350B40FD96EDA6A95
:102D5800DECF05F0DDCF06F005C0D9FF06C0DAFFEB
:102D68000450DF1600EF17F00150D96EDA6ADF5011
:102D7800070B026E010E036E022AC5EF16F0D890FB
:102D88000336022EC3EF16F00150D96EDA6ADF302F
:102D9800E832E832070B020DF350B40FD96EDA6A45
:102DA800DECF04F0DDCF05F004C0D9FF05C0DAFF9F
:102DB8000350DF1200EF17F00150D96EDA6ADFBE58
:102DC800E8EF16F0EBEF16F0010EECEF16F0000E40
:102DD800026E036A0350000AD8B4F5EF16F089EFC3
:102DE80016F00250000AD8B48DEF16F0010AD8B4D4
:102DF800B8EF16F089EF16F007501200000E026EB9
:102E0800000E016EFF0E036EFFEC20F085EC22F041
:102E180069EC22F01EEC1BF0000E026E000E016E33
:102E280079EC22F0566E5628D8A41DEF17F01FEF44
:102E380017F03AEF17F024EC18F01FC053F020C039
:102E480054F0010E026E200E016E53C003F0FFEC29
:102E580020F0010E026E210E016E54500F0B036E0E
:102E6800FFEC20F0010E566E54EF17F0FE0E5618C8
:102E7800D8A441EF17F043EF17F04DEF17F09FEC90
:102E880021F003C053F004C054F0000E566E54EF06
:102E980017F09FEC21F003C053F004C054F0562AF9
:102EA800000E026E000E016E56C003F0FFEC20F01B
:102EB800C60E0F6E010E106E0BEC20F0576EC60E8C
:102EC8000F6E020E106E0BEC20F0576E53C095F08B
:102ED80054C096F0DE0E0001976F4EEC1EF0576E50
:102EE800C60E196E010E1A6E010E1B6EDE0E1C6EDA
:102EF8001D6A8DEC20F0576EAE0E531807E1080ED0
:102F08005418D8A48AEF17F08CEF17F06AEF17F06F
:102F1800580E096EDBEC1EF0576E6AEF17F000EFE3
:102F280000F0010E086E0150D8B49DEF17F09FEF26
:102F380017F0BDEF17F00150D96EDA6ADF50070BB2
:102F4800036E080E0360ABEF17F0ADEF17F0BDEF9F
:102F580017F00150D96EDA6ADF30E832E832070B31
:102F6800036E040E0364BBEF17F0BDEF17F0C1EF5B
:102F780017F0000E086E22EF18F00204D8A4C7EF6D
:102F880017F0C9EF17F0F1EF17F00150D96EDA6AB0
:102F9800DF50070B036E010E046E032AD6EF17F0FD
:102FA800D8900436032ED4EF17F00150D96EDA6AA0
:102FB800DF30E832E832070B020DF350A00FD96E6C
:102FC800DA6ADECF05F0DDCF06F005C0D9FF06C00E
:102FD800DAFF0450DF1222EF18F00250D8A4F7EFFE
:102FE80017F0F9EF17F0BDEF17F00150D96EDA6A54
:102FF800DF50070B036E010E046E032A06EF18F06C
:10300800D8900436032E04EF18F00450FF0A056E1A
:103018000150D96EDA6ADF30E832E832070B020D68
:10302800F350A00FD96EDA6ADECF06F0DDCF07F0D5
:1030380006C0D9FF07C0DAFF0550DF160850120096
:10304800000E2B6EC60E126E110E136E1350D8A4FE
:10305800100E146E45EC1CF0576EC60E196E020E5B
:103068001A6E070E1B6E420E1C6E1C50D8A4100E52
:103078001D6E8DEC20F0576EC60E0F6E0E0E106E84
:103088000BEC20F0576E75EF18F0BE0E096E2B5042
:10309800CC0F0A6EA9EC1AF0576E2B50CC0FD96ED4
:1030A800DA6A4D0EDE18D8B45CEF18F05EEF18F04F
:1030B80075EF18F0C60E126E440E136E1350D8A496
:1030C800100E146E45EC1CF0576E2B2A060E226E5D
:1030D800130E216EAE0EE82EFED7212EFCD7222E1F
:1030E800FAD7030E2B647BEF18F07DEF18F049EF49
:1030F80018F0CCC001F0026A030E046EE80E036EED
:1031080056EC22F00001CE510A0DF3CF21F0F4CF96
:1031180022F0CD51640DF3CF23F0F4CF24F02150E9
:103128002324256E22502420266E01502524276E44
:1031380002502620286ECF512726000E2822B00ED6
:103148002724296E2F0E28202A6E29C01FF02AC096
:1031580020F01200033404340A6E0A50D8A4B7EFE2
:1031680018F0B9EF18F0C3EF18F0000E016E000E5A
:10317800026E000E036E000E046E30EF19F001C0EF
:1031880005F002C006F003C007F004C008F0200EE6
:10319800D3EF18F0D8900832073206320532E82EFD
:1031A800CEEF18F00550096E038EFF0E0116FF0EC4
:1031B8000216FF0E0316000E0416960E0A5E0ABECD
:1031C800EAEF18F0E8EF18F000EF19F00A50800A5B
:1031D800970FD8B0F2EF18F0F4EF18F0F6EF18F0F8
:1031E800B9EF18F0D89004320332023201320A3EA5
:1031F800F6EF18F018EF19F01F0E0A6406EF19F031
:1032080008EF19F010EF19F0B9EF18F0D89001365F
:103218000236033604360A060A50D8A416EF19F007
:1032280018EF19F00AEF19F00950D8B41EEF19F089
:1032380020EF19F028EF19F0041E031E021E016C7E
:10324800000E02220322042201C001F002C002F093
:1032580003C003F004C004F01200000E1A14226E1A
:10326800000E1B14236E800E1C14246E7F0E1D147A
:10327800256E2250231024102510D8A446EF19F0EB
:1032880048EF19F050EF19F0000E1A6E000E1B6E81
:10329800000E1C6E000E1D6E000E1E14226E000E17
:1032A8001F14236E800E2014246E7F0E2114256EA9
:1032B8002250231024102510D8A465EF19F067EFC9
:1032C80019F06FEF19F0000E1E6E000E1F6E000E43
:1032D800206E000E216E1DAE74EF19F076EF19F016
:1032E8007FEF19F01A6C1B1ED8B01B2A1C1ED8B011
:1032F8001C2A800E1D5621AE84EF19F086EF19F0B6
:103308008FEF19F01E6C1F1ED8B01F2A201ED8B0D0
:10331800202A800E2156000E1A1A000E1B1A000EC3
:103328001C1A800E1D1A000E1E1A000E1F1A000EFF
:10333800201A800E211A1E501A5C1F501B5820504C
:103348001C5821501D58D8B0ACEF19F0AEEF19F049
:10335800B1EF19F0D890B2EF19F0D8801200DAC0A6
:103368000BF0DBC00CF0DCC00DF0DDC00EF001C0CE
:103378000BF002C00CF003C00DF004C00EF00BC03F
:1033880005F00CC006F00DC007F00EC008F0180ECE
:10339800D3EF19F0D8900832073206320532E82EFA
:1033A800CEEF19F00550096E0A6A09500A10D8A420
:1033B800E0EF19F0E2EF19F002EF1AF0D8900B34B1
:1033C800056E0C34066E0D34076E0E34086E05500B
:1033D800061007100810D8A4F4EF19F0F6EF19F04A
:1033E800FCEF19F0000E026E020E016E31EF1AF0BA
:1033F800000E026E030E016E31EF1AF009280A1052
:10340800D8A409EF1AF00BEF1AF02DEF1AF00BC041
:1034180005F00CC006F00DC007F00EC008F0090E4C
:10342800D8900536063607360836E82E14EF1AF017
:103438000550061007100810D8B425EF1AF028EF29
:103448001AF0010E29EF1AF0000E016E026A31EF30
:103458001AF0000E026E040E016E1200000E146EB9
:103468001250D8A43AEF1AF03CEF1AF040EF1AF0D5
:10347800000E156EA7EF1AF01250040F096E9EEC9D
:103488001EF0156E1250050F096E9EEC1EF0156E9B
:10349800000E146E12501424096E9EEC1EF0142AAD
:1034A800030E14645AEF1AF05CEF1AF04EEF1AF09C
:1034B800270E136EF50EE82EFED7132EFCD700004C
:1034C80012C00FF0380E106E0BEC20F00D0E136EBC
:1034D800FC0EE82EFED7132EFCD712C00FF0380EC4
:1034E800106E0BEC20F0420EE82EFED700F000F034
:1034F80012C00FF0380E106E0BEC20F012C00FF057
:10350800010E106E0BEC20F012C00FF0020E106EC0
:103518000BEC20F012C00FF0060E106E0BEC20F032
:1035280012C00FF00C0E106E0BEC20F012C00FF052
:10353800280E106E0BEC20F012C00FF0800E106EEB
:103548000BEC20F0156E155012000950D8B4AFEFEF
:103558001AF0B1EF1AF0B9EF1AF00A50D8A4B7EF81
:103568001AF0B9EF1AF0BDEF1AF0000E0C6E1CEF4E
:103578001BF0000E0F6E000E0E6E000E0D6E000E8C
:103588000F6E000E0E6E09500E24016E000E026EB4
:1035980095EC17F00E2A030E0E64D5EF1AF0D7EF4C
:1035A8001AF0C7EF1AF009500F24016E010E026ECF
:1035B80095EC17F01A0E0B6EF80EE82EFED70B2EB0
:1035C800FCD700F000F0000E106E09501024040F14
:1035D800016E0D0E026EE5EC1BF00C6E0D04D8A406
:1035E800F8EF1AF0FAEF1AF00AEF1BF00F50040D7B
:1035F800F350010F10240B6E0BC0F6FF100EF76E80
:103608000A50D96EDA6A0800F5CFDFFF102A030ED8
:10361800106411EF1BF013EF1BF0E9EF1AF00F2AFB
:10362800030E0F641AEF1BF01CEF1BF0C5EF1AF026
:103638000C501200C60E126E250E136E1350D8A42D
:10364800100E146E45EC1CF0576E020E1A6E040E26
:10365800196EBA0EE82EFED7192EFCD71A2EFAD7F5
:1036680000F000F0000E1B6EC60E0F6E1C0E106EE2
:103678000BEC20F0576E020E1A6E040E196EBA0E7D
:10368800E82EFED7192EFCD71A2EFAD700F000F034
:103698001B2A0B0E1B6453EF1BF055EF1BF038EF82
:1036A8001BF0000E1B6EC60E0F6E180E106E0BEC84
:1036B80020F0576E020E1A6E040E196EBA0EE82E1E
:1036C800FED7192EFCD71A2EFAD700F000F01B2AC5
:1036D8000B0E1B6472EF1BF074EF1BF057EF1BF01F
:1036E800C60E0F6E010E106E0BEC20F0576EC60E54
:1036F8000F6E020E106E0BEC20F0576E1200000ECB
:10370800066E04BE8CEF1BF08AEF1BF092EF1BF0E5
:10371800036C041ED8B0042A010E066E02BE99EF8F
:103728001BF097EF1BF09FEF1BF0016C021ED8B047
:10373800022A010E061A000E086E000E076E0350CC
:103748000410D8B4AAEF1BF0ACEF1BF0D4EF1BF0B9
:10375800010E056EB4EF1BF0D89003360436052A27
:1037680004AEB9EF1BF0BBEF1BF0B0EF1BF0D89025
:10377800073608360350015C04500258D8A0C7EF3A
:103788001BF0C9EF1BF0CEEF1BF00350015E045095
:10379800025A0780D89004320332052EBBEF1BF083
:1037A8000650D8B4DAEF1BF0DCEF1BF0E0EF1BF0AB
:1037B800076C081ED8B0082A07C001F008C002F03C
:1037C8001200010E076E0150D8B4EDEF1BF0EFEFB9
:1037D8001BF015EF1CF00250D8B4F5EF1BF0F7EF13
:1037E8001BF015EF1CF00150D96EDA6ADF50070B99
:1037F800036E080E036003EF1CF005EF1CF015EFD5
:103808001CF00150D96EDA6ADF30E832E832070B73
:10381800036E040E036413EF1CF015EF1CF019EF90
:103828001CF0000E076E43EF1CF00250D96EDA6AE6
:103838000150E16EE26AE750070B036E0150E16E3A
:10384800E26AE730E832E832070B020DF350AA0FBC
:10385800E16EE26AE6CF04F0E5CF05F004C0E1FFCF
:1038680005C0E2FFE750066E032A3DEF1CF0D89032
:103878000632032E3BEF1CF00650010BDF6E07509B
:103888001200010E176E1250D8B44DEF1CF04FEF16
:103898001CF058EF1CF013501410D8A456EF1CF06D
:1038A80058EF1CF05CEF1CF0000E176E9FEF1CF039
:1038B800000E186E000E186E80EF1CF012C00FF08C
:1038C80018501324156E000E1420166E15C0F6FF3E
:1038D80016C0F7FF000EF86E0F0EF76403D008004D
:1038E800F55005D0F6CFE9FFF7CFEAFFEF50106E9D
:1038F800DCEC1FF01716182A18501324156E000E4A
:103908001420166E15C0F6FF16C0F7FF000EF86EED
:103918000F0EF76403D00800F55005D0F6CFE9FF85
:10392800F7CFEAFFEF500009D8A49DEF1CF09FEFF6
:103938001CF062EF1CF017501200000E066E02BE5B
:10394800AAEF1CF0A8EF1CF0B0EF1CF0016C021EEF
:10395800D8B0022A010E066E04BEB7EF1CF0B5EF10
:103968001CF0BBEF1CF0036C041ED8B0042A0350F3
:103978000410D8B4C2EF1CF0C4EF1CF0E8EF1CF040
:10398800010E056ECCEF1CF0D89003360436052ADC
:1039980004AED1EF1CF0D3EF1CF0C8EF1CF00350BD
:1039A800015C04500258D8A0DCEF1CF0DEEF1CF0DC
:1039B800E2EF1CF00350015E0450025AD890043222
:1039C8000332052ED3EF1CF00650D8B4EEEF1CF0EE
:1039D800F0EF1CF0F4EF1CF0016C021ED8B0022AC4
:1039E80001C001F002C002F01200010E176E125061
:1039F800D8A401EF1DF003EF1DF007EF1DF0000E36
:103A0800176E4FEF1DF0140632EF1DF012C00FF0C5
:103A18001450800F106E0BEC20F0176E4FEF1DF056
:103A280012C00FF01450C00F106E0BEC20F0176E80
:103A38004FEF1DF012C00FF01450940F106E0BECE6
:103A480020F0176E4FEF1DF012C00FF01450D40F76
:103A5800106E0BEC20F0176E4FEF1DF01350156E23
:103A6800166A1650000AD8B43CEF1DF04FEF1DF04F
:103A78001550010AD8B40AEF1DF0030AD8B414EFA0
:103A88001DF0010AD8B41EEF1DF0070AD8B428EFBC
:103A98001DF04FEF1DF017501200000E0114096EB3
:103AA800000E02140A6E800E03140B6E7F0E0414AF
:103AB8000C6E09500A100B100C10D8A466EF1DF0FC
:103AC80068EF1DF070EF1DF0000E016E000E026E23
:103AD800000E036E000E046E000E0514096E000E33
:103AE80006140A6E800E07140B6E7F0E08140C6EF7
:103AF80009500A100B100C10D8A485EF1DF087EFA1
:103B08001DF08FEF1DF0000E056E000E066E000E04
:103B1800076E000E086E055001180FE106500218D6
:103B28000CE10750031809E108500418D8B49FEFB6
:103B38001DF0A1EF1DF0A4EF1DF0D890A5EF1DF02A
:103B4800D88012000350D8B4ACEF1DF0AEEF1DF0D2
:103B5800B6EF1DF00350D8A4B4EF1DF0B6EF1DF07A
:103B6800BBEF1DF001508FEC22F0FAEF1DF003506F
:103B7800D96EDA6A0A0ED926DE50DE10D8B4C7EF3D
:103B88001DF0C9EF1DF0E2EF1DF00350D96EDA6A9F
:103B98000A0ED9260350E16EE26A030EE126DE50D2
:103BA800E65CE650800A086EDE50800A0858D8B0F5
:103BB800E0EF1DF0E2EF1DF0FAEF1DF00350D96EB3
:103BC800DA6A030ED926DF50046E0350D96EDA6A1A
:103BD800DF500424D96EDA6A01C0DFFF0350D96EC2
:103BE800DA6A030ED926DE2A000EDD221200000E44
:103BF8000B6E000E0A6E0750D96EDA6ADFCFF6FF39
:103C0800100EF76E0800F5502A0AD8A40EEF1EF021
:103C180010EF1EF036EF1EF00750D96EDA6ADF2A71
:103C28000850D96EDA6A020EDF26DF5CD96EDA6ACE
:103C3800DECF0AF0DECF0BF049EF1EF00AC001F02C
:103C48000BC002F0000E046E0A0E036E56EC22F052
:103C5800095001240A6E000E02200B6E0750D96E1F
:103C6800DA6ADF2A0750D96EDA6ADFCFF6FF100E5C
:103C7800F76E0800F550D00F096E090E096447EF7A
:103C88001EF049EF1EF022EF1EF00AC007F00BC02D
:103C980008F01200010E00019E6F9751D8A457EF4B
:103CA8001EF059EF1EF05DEF1EF0000E9E6F9CEFA8
:103CB8001EF020EE98F0050EDE6AE806FDE2000E22
:103CC8009F6F97C001F0000E036E200E026E000E6B
:103CD800056E050E046E26EC22F000019751D96E90
:103CE800DA6A050ED926DF6A980E8F6F3F0E906F3D
:103CF80095C091F096C092F0BCEC21F08FEF1EF0C9
:103D08009F51980FD96EDA6A97519F25E16EE26A42
:103D1800DFCFE7FF9F2B00019F51980FD96EDA6A1A
:103D2800DF50D8A49AEF1EF09CEF1EF084EF1EF02F
:103D38009E5112000950D8B4A4EF1EF0A6EF1EF051
:103D4800C4EF1EF00950D96EDA6ADF50070B0A6E0D
:103D5800080E0A60B2EF1EF0B4EF1EF0C4EF1EF0BA
:103D68000950D96EDA6ADF30E832E832070B0A6E9A
:103D7800040E0A64C2EF1EF0C4EF1EF0C8EF1EF076
:103D8800000E0B6ED9EF1EF009C001F061EC16F0C1
:103D98000B6E09C001F00950D96EDA6A000EDFBC5B
:103DA800010E026E95EC17F00B6E0B5012000950C5
:103DB800D8A4E1EF1EF0E3EF1EF0E7EF1EF0000ECF
:103DC8000B6E10EF1FF00950D96EDA6ADF500F0B37
:103DD8000A6E0A460A460A460C500A18C70B0A1801
:103DE8000C6E0950D96EDA6ADF38070B0A6E0C5070
:103DF8000A18F80B0A180C6E0950D96EDA6ADFAE89
:103E080002D00C8C01D00C9C0C9E0C0E016E010E85
:103E1800026E95EC17F00B6E0B5012000C50D8A4E4
:103E280018EF1FF01AEF1FF01EEF1FF0000E0E6EB6
:103E380045EF1FF00C50D96EDA6ADF500F0B0D6E8C
:103E48000D460D460D460F500D18C70B0D180F6E79
:103E58000C50D96EDA6ADF38070B0D6E0F500D184B
:103E6800F80B0D180F6E0C50D96EDA6ADFAE02D05F
:103E78000F8C01D00F9C0F9E0F0E096E9EEC1EF04A
:103E88000E6E0E50120013BE4EEF1FF04CEF1FF0D7
:103E980052EF1FF0000E136E000E126E000E166E1B
:103EA800000E156E62EF1FF0000E026E200E016EFE
:103EB8000FC003F0A6EC1DF0154A162A1250155C27
:103EC8001650800A146E1350800A1458D8A06FEF49
:103ED8001FF071EF1FF058EF1FF010C009F011C06C
:103EE8000AF00FC00BF062EC21F012000C50D8A4BD
:103EF80080EF1FF082EF1FF086EF1FF0000E0D6EAF
:103F0800AAEF1FF0000E0E6E000E0E6E0C500E245F
:103F1800096E9EEC1EF00E2A030E0E6496EF1FF03B
:103F280098EF1FF08AEF1FF0000E0F6E0C500F2451
:103F3800040F016E61EC16F00D6E0F2A030E0F646C
:103F4800A8EF1FF0AAEF1FF09AEF1FF00D50120014
:103F5800010E0D6E0950D8A4B4EF1FF0B6EF1FF094
:103F6800BAEF1FF0000E0D6EDAEF1FF0000E0E6EA6
:103F780009500E24016E0EC00BF00AC00CF00B2A7B
:103F8800C8EF1FF0D8900C320B2EC6EF1FF00C5064
:103F9800010B026E95EC17F00D160E2A030E0E6437
:103FA800D8EF1FF0DAEF1FF0BCEF1FF00D50120032
:103FB8000F50D8A4E2EF1FF0E4EF1FF0E8EF1FF076
:103FC800000E116E09EF20F00F50040F016E010E64
:103FD800026E95EC17F0116E0FC009F010380F0B38
:103FE8000A6EACEC1FF0116E0FC009F021EC21F045
:103FF800116E0FC009F010C00AF0ACEC1FF0116E82
:104008000FC009F021EC21F0116E115012000F5071
:10401800D8A411EF20F013EF20F017EF20F0000ED6
:10402800116E38EF20F00F50040F016E000E026E73
:1040380095EC17F0116E0FC009F010380F0B0A6ECF
:10404800ACEC1FF0116E0FC009F021EC21F0116EDD
:104058000FC009F010C00AF0ACEC1FF0116E0FC0D1
:1040680009F021EC21F0116E1150120004BE3FEF4F
:1040780020F041EF20F04BEF20F001C001F002C02A
:1040880002F003C003F004C004F064EF20F001C0A4
:1040980005F002C006F003C007F004C008F0051ED2
:1040A800061E071E081E052A000E062207220822E1
:1040B80005C001F006C002F007C003F008C004F014
:1040C800120003C00AF004C00BF001C008F002C0DF
:1040D80009F07FEF20F00AC0D9FF0BC0DAFFDF50EC
:1040E800076E0A4A0B2A08C0D9FF09C0DAFF07C0C1
:1040F800DFFF084A092A0506D8A00606052806E1B2
:104108000628D8A48AEF20F08CEF20F06FEF20F07B
:1041180012001950D8B493EF20F095EF20F09EEFDD
:1041280020F01C501D10D8A49CEF20F09EEF20F02A
:10413800A2EF20F0000E1E6EB3EF20F019C012F0AF
:104148001AC013F01BC014F0F9EC1CF019C012F0DF
:104158001CC013F01DC014F045EC1CF01E6E1E5060
:1041680012001C0EF66E440EF76E000EF86E00EE8E
:10417800A0F010EE30F00900F5CFEEFFE550E15069
:10418800FAE101EE00F0500EEE6AE806FDE100EEFD
:10419800D0F0140EEE6AE806FDE100EE4FF00A0ECC
:1041A800EE6AE806FDE1000EF86E000102EF17F076
:1041B800000E1E1A000E1F1A000E201A800E211A59
:1041C8001AC001F01BC002F01CC003F01DC004F0AF
:1041D8001EC005F01FC006F020C007F021C008F07F
:1041E80019EC0DF001C01AF002C01BF003C01CF05E
:1041F80004C01DF01200000EF2BE010E046E025043
:10420800030BAA6E01C0A9FF03C0A8FFA69EA69C27
:10421800A684F29E550EA76EAA0EA76EA682A6B217
:1042280018EF21F01AEF21F013EF21F0A69404B053
:1042380002D0F29E01D0F28E12000950D8A427EFC6
:1042480021F029EF21F02DEF21F0000E0A6E40EF4A
:1042580021F00950050F016E010E026E95EC17F062
:10426800030EE82EFED700000950050F016E000E60
:10427800026E95EC17F00A6E0A5012008DC041F0DC
:104288004EEF21F08CC036F0410E376E8EC038F0FC
:104298005BEC13F041C0F6FF100EF76E0800F55006
:1042A8000009D8A45AEF21F05CEF21F046EF21F085
:1042B800000E00018D6F000E8C6F1200000E0E6E46
:1042C800000E0D6E71EF21F00CC001F0026A0BC0F8
:1042D80003F0A6EC1DF00D4A0E2A0D500924D96EE4
:1042E8000E500A20DA6EDF500C6E0C50D8A47FEF07
:1042F80021F081EF21F068EF21F0120001C005F0F4
:1043080002C006F0032A0304046E04C0F6FF100E70
:10431800F76E05C0D9FF06C0DAFF054A062A08006D
:10432800F5CFDFFFDF50D8A49CEF21F09EEF21F0FE
:1043380086EF21F01200010E026E200E016E79EC5C
:1043480022F0056E0550086E096A010E026E200EF5
:10435800016E79EC22F0056E0550076E066A06506C
:1043680008120750091208C003F009C004F012002F
:10437800910E426E8FC043F0000E476E000E466EDF
:10438800000E4E6E000E4D6E430E00018C6F90C0F5
:104398008DF0420E8E6F42EC21F000018F514624C1
:1043A800D96EDA6ADF6A1200015002100310041095
:1043B800D8B4E1EF21F0E3EF21F0EBEF21F0000EAC
:1043C800011A000E021A000E031A800E041A01C008
:1043D80001F002C002F003C003F004C004F01200B0
:1043E80008BEF9EF21F0FBEF21F001EF22F007C042
:1043F80007F008C008F00DEF22F007C009F008C068
:104408000AF0091E0A1E094A0A2A09C007F00AC04A
:1044180008F01200890F8A0F8B0F8C0F8D0F800FF9
:10442800810F820F830F840F920F930F940F950FB4
:10443800960F1E1F2021908D8E8F1A1B1C1D181978
:104448004D4D4D4D01C006F030EF22F00650D96EAB
:10445800DA6A02C0DFFF062A0406D8A00506042887
:1044680006E10528D8A43BEF22F03DEF22F02AEF21
:1044780022F01200000E8D6E000E8C6E000E896EFA
:10448800000E8A6E000E8B6E070E966E9268936809
:104498009468FE0E956E7E681F0E7F6E000E7C6E11
:1044A800F18E120001500302F3CF05F0F4CF06F0AD
:1044B80001500402F350062602500302F350062668
:1044C80005C001F006C002F01200C60E126E32ECF2
:1044D8001AF0576EBE0E0C6E7AEC1FF0576E580E1F
:1044E8000C6E12EC1FF0576E12000250030BAA6EEE
:1044F80001C0A9FFA69CA69EA68000000000A850A7
:1045080012003EEC22F08AEC22F01200300ED36E3C
:08451800000E9B6E1200120060
:020000040030CA
:0E000000FF021F1EFF8B85FF0FC00FE00F4099
:00000001FF
